{
	"newburncc.sol": {
		"BurnContract": {
			"abi": [
				{
					"inputs": [
						{
							"internalType": "address",
							"name": "_stakingContractAddress",
							"type": "address"
						},
						{
							"internalType": "address",
							"name": "_newTokenAddress",
							"type": "address"
						}
					],
					"stateMutability": "nonpayable",
					"type": "constructor"
				},
				{
					"anonymous": false,
					"inputs": [
						{
							"indexed": true,
							"internalType": "address",
							"name": "user",
							"type": "address"
						},
						{
							"indexed": false,
							"internalType": "uint256",
							"name": "amount",
							"type": "uint256"
						},
						{
							"indexed": false,
							"internalType": "uint256",
							"name": "stakedBalance",
							"type": "uint256"
						}
					],
					"name": "BurnAndTransferStarted",
					"type": "event"
				},
				{
					"anonymous": false,
					"inputs": [
						{
							"indexed": true,
							"internalType": "address",
							"name": "user",
							"type": "address"
						},
						{
							"indexed": false,
							"internalType": "uint256",
							"name": "newTokenAmount",
							"type": "uint256"
						}
					],
					"name": "NewTokenCalculation",
					"type": "event"
				},
				{
					"anonymous": false,
					"inputs": [
						{
							"indexed": true,
							"internalType": "address",
							"name": "user",
							"type": "address"
						},
						{
							"indexed": false,
							"internalType": "uint256",
							"name": "newTokenAmount",
							"type": "uint256"
						}
					],
					"name": "NewTokensTransferred",
					"type": "event"
				},
				{
					"anonymous": false,
					"inputs": [
						{
							"indexed": true,
							"internalType": "address",
							"name": "user",
							"type": "address"
						},
						{
							"indexed": false,
							"internalType": "uint256",
							"name": "amount",
							"type": "uint256"
						}
					],
					"name": "TokensBurned",
					"type": "event"
				},
				{
					"inputs": [
						{
							"internalType": "uint256",
							"name": "amount",
							"type": "uint256"
						}
					],
					"name": "burnAndTransfer",
					"outputs": [],
					"stateMutability": "nonpayable",
					"type": "function"
				},
				{
					"inputs": [],
					"name": "conversionRate",
					"outputs": [
						{
							"internalType": "uint256",
							"name": "",
							"type": "uint256"
						}
					],
					"stateMutability": "view",
					"type": "function"
				},
				{
					"inputs": [],
					"name": "newToken",
					"outputs": [
						{
							"internalType": "contract NewTokenInterface",
							"name": "",
							"type": "address"
						}
					],
					"stateMutability": "view",
					"type": "function"
				},
				{
					"inputs": [],
					"name": "stakingContract",
					"outputs": [
						{
							"internalType": "contract StakingContractInterface",
							"name": "",
							"type": "address"
						}
					],
					"stateMutability": "view",
					"type": "function"
				},
				{
					"inputs": [],
					"name": "stakingContractAddress",
					"outputs": [
						{
							"internalType": "address",
							"name": "",
							"type": "address"
						}
					],
					"stateMutability": "view",
					"type": "function"
				}
			],
			"devdoc": {
				"kind": "dev",
				"methods": {},
				"version": 1
			},
			"evm": {
				"assembly": "    /* \"newburncc.sol\":268:2344  contract BurnContract {... */\n  mstore(0x40, 0x80)\n    /* \"newburncc.sol\":464:468  1000 */\n  0x03e8\n    /* \"newburncc.sol\":432:468  uint256 public conversionRate = 1000 */\n  0x03\n  sstore\n    /* \"newburncc.sol\":825:1116  constructor(... */\n  callvalue\n  dup1\n  iszero\n  tag_1\n  jumpi\n  0x00\n  dup1\n  revert\ntag_1:\n  pop\n  mload(0x40)\n  sub(codesize, bytecodeSize)\n  dup1\n  bytecodeSize\n  dup4\n  codecopy\n  dup2\n  add\n  0x40\n  dup2\n  swap1\n  mstore\n  tag_2\n  swap2\n  tag_3\n  jump\t// in\ntag_2:\n    /* \"newburncc.sol\":928:950  stakingContractAddress */\n  0x00\n    /* \"newburncc.sol\":928:976  stakingContractAddress = _stakingContractAddress */\n  dup1\n  sload\n  sub(shl(0xa0, 0x01), 0x01)\n  swap4\n  dup5\n  and\n  not(sub(shl(0xa0, 0x01), 0x01))\n  swap2\n  dup3\n  and\n  dup2\n  or\n  swap1\n  swap3\n  sstore\n  0x01\n    /* \"newburncc.sol\":986:1053  stakingContract = StakingContractInterface(_stakingContractAddress) */\n  dup1\n  sload\n  dup3\n  and\n  swap1\n  swap3\n  or\n  swap1\n  swap2\n  sstore\n    /* \"newburncc.sol\":1063:1071  newToken */\n  0x02\n    /* \"newburncc.sol\":1063:1109  newToken = NewTokenInterface(_newTokenAddress) */\n  dup1\n  sload\n  swap3\n  swap1\n  swap4\n  and\n  swap2\n  and\n  or\n  swap1\n  sstore\n    /* \"newburncc.sol\":268:2344  contract BurnContract {... */\n  jump(tag_7)\n    /* \"#utility.yul\":14:193   */\ntag_8:\n    /* \"#utility.yul\":95:108   */\n  dup1\n  mload\n  sub(shl(0xa0, 0x01), 0x01)\n    /* \"#utility.yul\":137:168   */\n  dup2\n  and\n    /* \"#utility.yul\":127:169   */\n  dup2\n  eq\n    /* \"#utility.yul\":117:119   */\n  tag_10\n  jumpi\n    /* \"#utility.yul\":183:184   */\n  0x00\n    /* \"#utility.yul\":180:181   */\n  dup1\n    /* \"#utility.yul\":173:185   */\n  revert\n    /* \"#utility.yul\":117:119   */\ntag_10:\n    /* \"#utility.yul\":76:193   */\n  swap2\n  swap1\n  pop\n  jump\t// out\n    /* \"#utility.yul\":198:505   */\ntag_3:\n  0x00\n  dup1\n    /* \"#utility.yul\":338:340   */\n  0x40\n    /* \"#utility.yul\":326:335   */\n  dup4\n    /* \"#utility.yul\":317:324   */\n  dup6\n    /* \"#utility.yul\":313:336   */\n  sub\n    /* \"#utility.yul\":309:341   */\n  slt\n    /* \"#utility.yul\":306:308   */\n  iszero\n  tag_12\n  jumpi\n    /* \"#utility.yul\":359:365   */\n  dup2\n    /* \"#utility.yul\":351:357   */\n  dup3\n    /* \"#utility.yul\":344:366   */\n  revert\n    /* \"#utility.yul\":306:308   */\ntag_12:\n    /* \"#utility.yul\":387:429   */\n  tag_13\n    /* \"#utility.yul\":419:428   */\n  dup4\n    /* \"#utility.yul\":387:429   */\n  tag_8\n  jump\t// in\ntag_13:\n    /* \"#utility.yul\":377:429   */\n  swap2\n  pop\n    /* \"#utility.yul\":448:499   */\n  tag_14\n    /* \"#utility.yul\":495:497   */\n  0x20\n    /* \"#utility.yul\":484:493   */\n  dup5\n    /* \"#utility.yul\":480:498   */\n  add\n    /* \"#utility.yul\":448:499   */\n  tag_8\n  jump\t// in\ntag_14:\n    /* \"#utility.yul\":438:499   */\n  swap1\n  pop\n    /* \"#utility.yul\":296:505   */\n  swap3\n  pop\n  swap3\n  swap1\n  pop\n  jump\t// out\ntag_7:\n    /* \"newburncc.sol\":268:2344  contract BurnContract {... */\n  dataSize(sub_0)\n  dup1\n  dataOffset(sub_0)\n  0x00\n  codecopy\n  0x00\n  return\nstop\n\nsub_0: assembly {\n        /* \"newburncc.sol\":268:2344  contract BurnContract {... */\n      mstore(0x40, 0x80)\n      callvalue\n      dup1\n      iszero\n      tag_1\n      jumpi\n      0x00\n      dup1\n      revert\n    tag_1:\n      pop\n      jumpi(tag_2, lt(calldatasize, 0x04))\n      shr(0xe0, calldataload(0x00))\n      dup1\n      0x3535f48b\n      eq\n      tag_3\n      jumpi\n      dup1\n      0x7ffdf53e\n      eq\n      tag_4\n      jumpi\n      dup1\n      0xc42bd05a\n      eq\n      tag_5\n      jumpi\n      dup1\n      0xea48cfb1\n      eq\n      tag_6\n      jumpi\n      dup1\n      0xee99205c\n      eq\n      tag_7\n      jumpi\n    tag_2:\n      0x00\n      dup1\n      revert\n        /* \"newburncc.sol\":296:333  address public stakingContractAddress */\n    tag_3:\n      tag_8\n      tag_9\n      jump\t// in\n    tag_8:\n      mload(0x40)\n      tag_10\n      swap2\n      swap1\n      tag_11\n      jump\t// in\n    tag_10:\n      mload(0x40)\n      dup1\n      swap2\n      sub\n      swap1\n      return\n        /* \"newburncc.sol\":432:468  uint256 public conversionRate = 1000 */\n    tag_4:\n      tag_12\n      tag_13\n      jump\t// in\n    tag_12:\n      mload(0x40)\n      tag_10\n      swap2\n      swap1\n      tag_15\n      jump\t// in\n        /* \"newburncc.sol\":392:425  NewTokenInterface public newToken */\n    tag_5:\n      tag_8\n      tag_17\n      jump\t// in\n        /* \"newburncc.sol\":1122:2342  function burnAndTransfer(uint256 amount) external {... */\n    tag_6:\n      tag_20\n      tag_21\n      calldatasize\n      0x04\n      tag_22\n      jump\t// in\n    tag_21:\n      tag_23\n      jump\t// in\n    tag_20:\n      stop\n        /* \"newburncc.sol\":339:386  StakingContractInterface public stakingContract */\n    tag_7:\n      tag_8\n      tag_25\n      jump\t// in\n        /* \"newburncc.sol\":296:333  address public stakingContractAddress */\n    tag_9:\n      and(sub(shl(0xa0, 0x01), 0x01), sload(0x00))\n      dup2\n      jump\t// out\n        /* \"newburncc.sol\":432:468  uint256 public conversionRate = 1000 */\n    tag_13:\n      sload(0x03)\n      dup2\n      jump\t// out\n        /* \"newburncc.sol\":392:425  NewTokenInterface public newToken */\n    tag_17:\n      and(sub(shl(0xa0, 0x01), 0x01), sload(0x02))\n      dup2\n      jump\t// out\n        /* \"newburncc.sol\":1122:2342  function burnAndTransfer(uint256 amount) external {... */\n    tag_23:\n        /* \"newburncc.sol\":1199:1200  0 */\n      0x00\n        /* \"newburncc.sol\":1190:1196  amount */\n      dup2\n        /* \"newburncc.sol\":1190:1200  amount > 0 */\n      gt\n        /* \"newburncc.sol\":1182:1234  require(amount > 0, \"Amount must be greater than 0\") */\n      tag_29\n      jumpi\n      mload(0x40)\n      shl(0xe5, 0x461bcd)\n      dup2\n      mstore\n      0x04\n      add\n      tag_30\n      swap1\n      tag_31\n      jump\t// in\n    tag_30:\n      mload(0x40)\n      dup1\n      swap2\n      sub\n      swap1\n      revert\n    tag_29:\n        /* \"newburncc.sol\":1269:1284  stakingContract */\n      sload(0x01)\n        /* \"newburncc.sol\":1269:1310  stakingContract.stakedBalance(msg.sender) */\n      mload(0x40)\n      shl(0xe0, 0x60217267)\n      dup2\n      mstore\n        /* \"newburncc.sol\":1245:1266  uint256 stakedBalance */\n      0x00\n      swap2\n      sub(shl(0xa0, 0x01), 0x01)\n        /* \"newburncc.sol\":1269:1284  stakingContract */\n      and\n      swap1\n        /* \"newburncc.sol\":1269:1298  stakingContract.stakedBalance */\n      0x60217267\n      swap1\n        /* \"newburncc.sol\":1269:1310  stakingContract.stakedBalance(msg.sender) */\n      tag_32\n      swap1\n        /* \"newburncc.sol\":1299:1309  msg.sender */\n      caller\n      swap1\n        /* \"newburncc.sol\":1269:1310  stakingContract.stakedBalance(msg.sender) */\n      0x04\n      add\n      tag_11\n      jump\t// in\n    tag_32:\n      0x20\n      mload(0x40)\n      dup1\n      dup4\n      sub\n      dup2\n      dup7\n      dup1\n      extcodesize\n      iszero\n      dup1\n      iszero\n      tag_33\n      jumpi\n      0x00\n      dup1\n      revert\n    tag_33:\n      pop\n      gas\n      staticcall\n      iszero\n      dup1\n      iszero\n      tag_35\n      jumpi\n      returndatasize\n      0x00\n      dup1\n      returndatacopy\n      revert(0x00, returndatasize)\n    tag_35:\n      pop\n      pop\n      pop\n      pop\n      mload(0x40)\n      returndatasize\n      not(0x1f)\n      0x1f\n      dup3\n      add\n      and\n      dup3\n      add\n      dup1\n      0x40\n      mstore\n      pop\n      dup2\n      add\n      swap1\n      tag_36\n      swap2\n      swap1\n      tag_37\n      jump\t// in\n    tag_36:\n        /* \"newburncc.sol\":1245:1310  uint256 stakedBalance = stakingContract.stakedBalance(msg.sender) */\n      swap1\n      pop\n        /* \"newburncc.sol\":1346:1352  amount */\n      dup2\n        /* \"newburncc.sol\":1329:1342  stakedBalance */\n      dup2\n        /* \"newburncc.sol\":1329:1352  stakedBalance >= amount */\n      lt\n      iszero\n        /* \"newburncc.sol\":1321:1384  require(stakedBalance >= amount, \"Insufficient staked balance\") */\n      tag_38\n      jumpi\n      mload(0x40)\n      shl(0xe5, 0x461bcd)\n      dup2\n      mstore\n      0x04\n      add\n      tag_30\n      swap1\n      tag_40\n      jump\t// in\n    tag_38:\n        /* \"newburncc.sol\":1481:1491  msg.sender */\n      caller\n      sub(shl(0xa0, 0x01), 0x01)\n        /* \"newburncc.sol\":1458:1515  BurnAndTransferStarted(msg.sender, amount, stakedBalance) */\n      and\n      0x5cca6e60d92fa932734614ce13b4c2d8f7307a963c23547e639481c60c522062\n        /* \"newburncc.sol\":1493:1499  amount */\n      dup4\n        /* \"newburncc.sol\":1501:1514  stakedBalance */\n      dup4\n        /* \"newburncc.sol\":1458:1515  BurnAndTransferStarted(msg.sender, amount, stakedBalance) */\n      mload(0x40)\n      tag_41\n      swap3\n      swap2\n      swap1\n      tag_42\n      jump\t// in\n    tag_41:\n      mload(0x40)\n      dup1\n      swap2\n      sub\n      swap1\n      log2\n        /* \"newburncc.sol\":1624:1643  address burnAddress */\n      0x00\n        /* \"newburncc.sol\":1705:1727  stakingContractAddress */\n      sload\n        /* \"newburncc.sol\":1698:1758  IERC20(stakingContractAddress).transfer(burnAddress, amount) */\n      mload(0x40)\n      shl(0xe0, 0xa9059cbb)\n      dup2\n      mstore\n        /* \"newburncc.sol\":1646:1688  0x000000000000000000000000000000000000dEaD */\n      0xdead\n      swap2\n      sub(shl(0xa0, 0x01), 0x01)\n        /* \"newburncc.sol\":1705:1727  stakingContractAddress */\n      and\n      swap1\n        /* \"newburncc.sol\":1698:1737  IERC20(stakingContractAddress).transfer */\n      0xa9059cbb\n      swap1\n        /* \"newburncc.sol\":1698:1758  IERC20(stakingContractAddress).transfer(burnAddress, amount) */\n      tag_43\n      swap1\n        /* \"newburncc.sol\":1646:1688  0x000000000000000000000000000000000000dEaD */\n      dup5\n      swap1\n        /* \"newburncc.sol\":1751:1757  amount */\n      dup8\n      swap1\n        /* \"newburncc.sol\":1698:1758  IERC20(stakingContractAddress).transfer(burnAddress, amount) */\n      0x04\n      add\n      tag_44\n      jump\t// in\n    tag_43:\n      0x20\n      mload(0x40)\n      dup1\n      dup4\n      sub\n      dup2\n      0x00\n      dup8\n      dup1\n      extcodesize\n      iszero\n      dup1\n      iszero\n      tag_45\n      jumpi\n      0x00\n      dup1\n      revert\n    tag_45:\n      pop\n      gas\n      call\n      iszero\n      dup1\n      iszero\n      tag_47\n      jumpi\n      returndatasize\n      0x00\n      dup1\n      returndatacopy\n      revert(0x00, returndatasize)\n    tag_47:\n      pop\n      pop\n      pop\n      pop\n      mload(0x40)\n      returndatasize\n      not(0x1f)\n      0x1f\n      dup3\n      add\n      and\n      dup3\n      add\n      dup1\n      0x40\n      mstore\n      pop\n      dup2\n      add\n      swap1\n      tag_48\n      swap2\n      swap1\n      tag_49\n      jump\t// in\n    tag_48:\n      pop\n        /* \"newburncc.sol\":1845:1855  msg.sender */\n      caller\n      sub(shl(0xa0, 0x01), 0x01)\n        /* \"newburncc.sol\":1832:1864  TokensBurned(msg.sender, amount) */\n      and\n      0xfd38818f5291bf0bb3a2a48aadc06ba8757865d1dabd804585338aab3009dcb6\n        /* \"newburncc.sol\":1857:1863  amount */\n      dup5\n        /* \"newburncc.sol\":1832:1864  TokensBurned(msg.sender, amount) */\n      mload(0x40)\n      tag_50\n      swap2\n      swap1\n      tag_15\n      jump\t// in\n    tag_50:\n      mload(0x40)\n      dup1\n      swap2\n      sub\n      swap1\n      log2\n        /* \"newburncc.sol\":1933:1955  uint256 newTokenAmount */\n      0x00\n        /* \"newburncc.sol\":1967:1981  conversionRate */\n      sload(0x03)\n        /* \"newburncc.sol\":1958:1964  amount */\n      dup5\n        /* \"newburncc.sol\":1958:1981  amount / conversionRate */\n      tag_51\n      swap2\n      swap1\n      tag_52\n      jump\t// in\n    tag_51:\n        /* \"newburncc.sol\":1933:1981  uint256 newTokenAmount = amount / conversionRate */\n      swap1\n      pop\n        /* \"newburncc.sol\":2075:2085  msg.sender */\n      caller\n      sub(shl(0xa0, 0x01), 0x01)\n        /* \"newburncc.sol\":2055:2102  NewTokenCalculation(msg.sender, newTokenAmount) */\n      and\n      0x0606a6579f291744b661285f4e15f5b8fcb378a76ab61fa51a7a79b231ea4420\n        /* \"newburncc.sol\":2087:2101  newTokenAmount */\n      dup3\n        /* \"newburncc.sol\":2055:2102  NewTokenCalculation(msg.sender, newTokenAmount) */\n      mload(0x40)\n      tag_53\n      swap2\n      swap1\n      tag_15\n      jump\t// in\n    tag_53:\n      mload(0x40)\n      dup1\n      swap2\n      sub\n      swap1\n      log2\n        /* \"newburncc.sol\":2156:2164  newToken */\n      sload(0x02)\n        /* \"newburncc.sol\":2156:2201  newToken.transfer(msg.sender, newTokenAmount) */\n      mload(0x40)\n      shl(0xe0, 0xa9059cbb)\n      dup2\n      mstore\n      sub(shl(0xa0, 0x01), 0x01)\n        /* \"newburncc.sol\":2156:2164  newToken */\n      swap1\n      swap2\n      and\n      swap1\n        /* \"newburncc.sol\":2156:2173  newToken.transfer */\n      0xa9059cbb\n      swap1\n        /* \"newburncc.sol\":2156:2201  newToken.transfer(msg.sender, newTokenAmount) */\n      tag_54\n      swap1\n        /* \"newburncc.sol\":2174:2184  msg.sender */\n      caller\n      swap1\n        /* \"newburncc.sol\":2186:2200  newTokenAmount */\n      dup6\n      swap1\n        /* \"newburncc.sol\":2156:2201  newToken.transfer(msg.sender, newTokenAmount) */\n      0x04\n      add\n      tag_44\n      jump\t// in\n    tag_54:\n      0x20\n      mload(0x40)\n      dup1\n      dup4\n      sub\n      dup2\n      0x00\n      dup8\n      dup1\n      extcodesize\n      iszero\n      dup1\n      iszero\n      tag_55\n      jumpi\n      0x00\n      dup1\n      revert\n    tag_55:\n      pop\n      gas\n      call\n      iszero\n      dup1\n      iszero\n      tag_57\n      jumpi\n      returndatasize\n      0x00\n      dup1\n      returndatacopy\n      revert(0x00, returndatasize)\n    tag_57:\n      pop\n      pop\n      pop\n      pop\n      mload(0x40)\n      returndatasize\n      not(0x1f)\n      0x1f\n      dup3\n      add\n      and\n      dup3\n      add\n      dup1\n      0x40\n      mstore\n      pop\n      dup2\n      add\n      swap1\n      tag_58\n      swap2\n      swap1\n      tag_49\n      jump\t// in\n    tag_58:\n      pop\n        /* \"newburncc.sol\":2308:2318  msg.sender */\n      caller\n      sub(shl(0xa0, 0x01), 0x01)\n        /* \"newburncc.sol\":2287:2335  NewTokensTransferred(msg.sender, newTokenAmount) */\n      and\n      0x846a89b57591b6b9909fbd88e7cc9666b3f1b91ae9899dbb65170d70d56bdfc5\n        /* \"newburncc.sol\":2320:2334  newTokenAmount */\n      dup3\n        /* \"newburncc.sol\":2287:2335  NewTokensTransferred(msg.sender, newTokenAmount) */\n      mload(0x40)\n      tag_59\n      swap2\n      swap1\n      tag_15\n      jump\t// in\n    tag_59:\n      mload(0x40)\n      dup1\n      swap2\n      sub\n      swap1\n      log2\n        /* \"newburncc.sol\":1122:2342  function burnAndTransfer(uint256 amount) external {... */\n      pop\n      pop\n      pop\n      pop\n      jump\t// out\n        /* \"newburncc.sol\":339:386  StakingContractInterface public stakingContract */\n    tag_25:\n      and(sub(shl(0xa0, 0x01), 0x01), sload(0x01))\n      dup2\n      jump\t// out\n        /* \"#utility.yul\":14:311   */\n    tag_49:\n      0x00\n        /* \"#utility.yul\":134:136   */\n      0x20\n        /* \"#utility.yul\":122:131   */\n      dup3\n        /* \"#utility.yul\":113:120   */\n      dup5\n        /* \"#utility.yul\":109:132   */\n      sub\n        /* \"#utility.yul\":105:137   */\n      slt\n        /* \"#utility.yul\":102:104   */\n      iszero\n      tag_62\n      jumpi\n        /* \"#utility.yul\":155:161   */\n      dup1\n        /* \"#utility.yul\":147:153   */\n      dup2\n        /* \"#utility.yul\":140:162   */\n      revert\n        /* \"#utility.yul\":102:104   */\n    tag_62:\n        /* \"#utility.yul\":192:201   */\n      dup2\n        /* \"#utility.yul\":186:202   */\n      mload\n        /* \"#utility.yul\":245:250   */\n      dup1\n        /* \"#utility.yul\":238:251   */\n      iszero\n        /* \"#utility.yul\":231:252   */\n      iszero\n        /* \"#utility.yul\":224:229   */\n      dup2\n        /* \"#utility.yul\":221:253   */\n      eq\n        /* \"#utility.yul\":211:213   */\n      tag_63\n      jumpi\n        /* \"#utility.yul\":272:278   */\n      dup2\n        /* \"#utility.yul\":264:270   */\n      dup3\n        /* \"#utility.yul\":257:279   */\n      revert\n        /* \"#utility.yul\":211:213   */\n    tag_63:\n        /* \"#utility.yul\":300:305   */\n      swap4\n        /* \"#utility.yul\":92:311   */\n      swap3\n      pop\n      pop\n      pop\n      jump\t// out\n        /* \"#utility.yul\":316:506   */\n    tag_22:\n      0x00\n        /* \"#utility.yul\":428:430   */\n      0x20\n        /* \"#utility.yul\":416:425   */\n      dup3\n        /* \"#utility.yul\":407:414   */\n      dup5\n        /* \"#utility.yul\":403:426   */\n      sub\n        /* \"#utility.yul\":399:431   */\n      slt\n        /* \"#utility.yul\":396:398   */\n      iszero\n      tag_65\n      jumpi\n        /* \"#utility.yul\":449:455   */\n      dup1\n        /* \"#utility.yul\":441:447   */\n      dup2\n        /* \"#utility.yul\":434:456   */\n      revert\n        /* \"#utility.yul\":396:398   */\n    tag_65:\n      pop\n        /* \"#utility.yul\":477:500   */\n      calldataload\n      swap2\n        /* \"#utility.yul\":386:506   */\n      swap1\n      pop\n      jump\t// out\n        /* \"#utility.yul\":511:705   */\n    tag_37:\n      0x00\n        /* \"#utility.yul\":634:636   */\n      0x20\n        /* \"#utility.yul\":622:631   */\n      dup3\n        /* \"#utility.yul\":613:620   */\n      dup5\n        /* \"#utility.yul\":609:632   */\n      sub\n        /* \"#utility.yul\":605:637   */\n      slt\n        /* \"#utility.yul\":602:604   */\n      iszero\n      tag_67\n      jumpi\n        /* \"#utility.yul\":655:661   */\n      dup1\n        /* \"#utility.yul\":647:653   */\n      dup2\n        /* \"#utility.yul\":640:662   */\n      revert\n        /* \"#utility.yul\":602:604   */\n    tag_67:\n      pop\n        /* \"#utility.yul\":683:699   */\n      mload\n      swap2\n        /* \"#utility.yul\":592:705   */\n      swap1\n      pop\n      jump\t// out\n        /* \"#utility.yul\":710:913   */\n    tag_11:\n      sub(shl(0xa0, 0x01), 0x01)\n        /* \"#utility.yul\":874:906   */\n      swap2\n      swap1\n      swap2\n      and\n        /* \"#utility.yul\":856:907   */\n      dup2\n      mstore\n        /* \"#utility.yul\":844:846   */\n      0x20\n        /* \"#utility.yul\":829:847   */\n      add\n      swap1\n        /* \"#utility.yul\":811:913   */\n      jump\t// out\n        /* \"#utility.yul\":918:1192   */\n    tag_44:\n      sub(shl(0xa0, 0x01), 0x01)\n        /* \"#utility.yul\":1110:1142   */\n      swap3\n      swap1\n      swap3\n      and\n        /* \"#utility.yul\":1092:1143   */\n      dup3\n      mstore\n        /* \"#utility.yul\":1174:1176   */\n      0x20\n        /* \"#utility.yul\":1159:1177   */\n      dup3\n      add\n        /* \"#utility.yul\":1152:1186   */\n      mstore\n        /* \"#utility.yul\":1080:1082   */\n      0x40\n        /* \"#utility.yul\":1065:1083   */\n      add\n      swap1\n        /* \"#utility.yul\":1047:1192   */\n      jump\t// out\n        /* \"#utility.yul\":1669:2022   */\n    tag_31:\n        /* \"#utility.yul\":1871:1873   */\n      0x20\n        /* \"#utility.yul\":1853:1874   */\n      dup1\n      dup3\n      mstore\n        /* \"#utility.yul\":1910:1912   */\n      0x1d\n        /* \"#utility.yul\":1890:1908   */\n      swap1\n      dup3\n      add\n        /* \"#utility.yul\":1883:1913   */\n      mstore\n        /* \"#utility.yul\":1949:1980   */\n      0x416d6f756e74206d7573742062652067726561746572207468616e2030000000\n        /* \"#utility.yul\":1944:1946   */\n      0x40\n        /* \"#utility.yul\":1929:1947   */\n      dup3\n      add\n        /* \"#utility.yul\":1922:1981   */\n      mstore\n        /* \"#utility.yul\":2013:2015   */\n      0x60\n        /* \"#utility.yul\":1998:2016   */\n      add\n      swap1\n        /* \"#utility.yul\":1843:2022   */\n      jump\t// out\n        /* \"#utility.yul\":2027:2378   */\n    tag_40:\n        /* \"#utility.yul\":2229:2231   */\n      0x20\n        /* \"#utility.yul\":2211:2232   */\n      dup1\n      dup3\n      mstore\n        /* \"#utility.yul\":2268:2270   */\n      0x1b\n        /* \"#utility.yul\":2248:2266   */\n      swap1\n      dup3\n      add\n        /* \"#utility.yul\":2241:2271   */\n      mstore\n        /* \"#utility.yul\":2307:2336   */\n      0x496e73756666696369656e74207374616b65642062616c616e63650000000000\n        /* \"#utility.yul\":2302:2304   */\n      0x40\n        /* \"#utility.yul\":2287:2305   */\n      dup3\n      add\n        /* \"#utility.yul\":2280:2337   */\n      mstore\n        /* \"#utility.yul\":2369:2371   */\n      0x60\n        /* \"#utility.yul\":2354:2372   */\n      add\n      swap1\n        /* \"#utility.yul\":2201:2378   */\n      jump\t// out\n        /* \"#utility.yul\":2383:2560   */\n    tag_15:\n        /* \"#utility.yul\":2529:2554   */\n      swap1\n      dup2\n      mstore\n        /* \"#utility.yul\":2517:2519   */\n      0x20\n        /* \"#utility.yul\":2502:2520   */\n      add\n      swap1\n        /* \"#utility.yul\":2484:2560   */\n      jump\t// out\n        /* \"#utility.yul\":2565:2813   */\n    tag_42:\n        /* \"#utility.yul\":2739:2764   */\n      swap2\n      dup3\n      mstore\n        /* \"#utility.yul\":2795:2797   */\n      0x20\n        /* \"#utility.yul\":2780:2798   */\n      dup3\n      add\n        /* \"#utility.yul\":2773:2807   */\n      mstore\n        /* \"#utility.yul\":2727:2729   */\n      0x40\n        /* \"#utility.yul\":2712:2730   */\n      add\n      swap1\n        /* \"#utility.yul\":2694:2813   */\n      jump\t// out\n        /* \"#utility.yul\":2818:3035   */\n    tag_52:\n      0x00\n        /* \"#utility.yul\":2884:2885   */\n      dup3\n        /* \"#utility.yul\":2874:2876   */\n      tag_77\n      jumpi\n      shl(0xe0, 0x4e487b71)\n        /* \"#utility.yul\":2909:2940   */\n      dup2\n      mstore\n        /* \"#utility.yul\":2963:2967   */\n      0x12\n        /* \"#utility.yul\":2960:2961   */\n      0x04\n        /* \"#utility.yul\":2953:2968   */\n      mstore\n        /* \"#utility.yul\":2991:2995   */\n      0x24\n        /* \"#utility.yul\":2916:2917   */\n      dup2\n        /* \"#utility.yul\":2981:2996   */\n      revert\n        /* \"#utility.yul\":2874:2876   */\n    tag_77:\n      pop\n        /* \"#utility.yul\":3020:3029   */\n      div\n      swap1\n        /* \"#utility.yul\":2864:3035   */\n      jump\t// out\n\n    auxdata: 0xa26469706673582212209fc61841980eefa99fa2d87bc7939d6284ef40c7e5cc7a8793371e19836a3a5064736f6c63430008000033\n}\n",
				"bytecode": {
					"linkReferences": {},
					"object": "60806040526103e860035534801561001657600080fd5b5060405161060c38038061060c8339810160408190526100359161008f565b600080546001600160a01b039384166001600160a01b03199182168117909255600180548216909217909155600280549290931691161790556100c1565b80516001600160a01b038116811461008a57600080fd5b919050565b600080604083850312156100a1578182fd5b6100aa83610073565b91506100b860208401610073565b90509250929050565b61053c806100d06000396000f3fe608060405234801561001057600080fd5b50600436106100575760003560e01c80633535f48b1461005c5780637ffdf53e1461007a578063c42bd05a1461008f578063ea48cfb114610097578063ee99205c146100ac575b600080fd5b6100646100b4565b6040516100719190610434565b60405180910390f35b6100826100c3565b60405161007191906104cf565b6100646100c9565b6100aa6100a5366004610404565b6100d8565b005b6100646103ce565b6000546001600160a01b031681565b60035481565b6002546001600160a01b031681565b600081116101015760405162461bcd60e51b81526004016100f890610461565b60405180910390fd5b600154604051636021726760e01b81526000916001600160a01b031690636021726790610132903390600401610434565b60206040518083038186803b15801561014a57600080fd5b505afa15801561015e573d6000803e3d6000fd5b505050506040513d601f19601f82011682018060405250810190610182919061041c565b9050818110156101a45760405162461bcd60e51b81526004016100f890610498565b336001600160a01b03167f5cca6e60d92fa932734614ce13b4c2d8f7307a963c23547e639481c60c52206283836040516101df9291906104d8565b60405180910390a260005460405163a9059cbb60e01b815261dead916001600160a01b03169063a9059cbb9061021b9084908790600401610448565b602060405180830381600087803b15801561023557600080fd5b505af1158015610249573d6000803e3d6000fd5b505050506040513d601f19601f8201168201806040525081019061026d91906103dd565b50336001600160a01b03167ffd38818f5291bf0bb3a2a48aadc06ba8757865d1dabd804585338aab3009dcb6846040516102a791906104cf565b60405180910390a26000600354846102bf91906104e6565b9050336001600160a01b03167f0606a6579f291744b661285f4e15f5b8fcb378a76ab61fa51a7a79b231ea4420826040516102fa91906104cf565b60405180910390a260025460405163a9059cbb60e01b81526001600160a01b039091169063a9059cbb906103349033908590600401610448565b602060405180830381600087803b15801561034e57600080fd5b505af1158015610362573d6000803e3d6000fd5b505050506040513d601f19601f8201168201806040525081019061038691906103dd565b50336001600160a01b03167f846a89b57591b6b9909fbd88e7cc9666b3f1b91ae9899dbb65170d70d56bdfc5826040516103c091906104cf565b60405180910390a250505050565b6001546001600160a01b031681565b6000602082840312156103ee578081fd5b815180151581146103fd578182fd5b9392505050565b600060208284031215610415578081fd5b5035919050565b60006020828403121561042d578081fd5b5051919050565b6001600160a01b0391909116815260200190565b6001600160a01b03929092168252602082015260400190565b6020808252601d908201527f416d6f756e74206d7573742062652067726561746572207468616e2030000000604082015260600190565b6020808252601b908201527f496e73756666696369656e74207374616b65642062616c616e63650000000000604082015260600190565b90815260200190565b918252602082015260400190565b60008261050157634e487b7160e01b81526012600452602481fd5b50049056fea26469706673582212209fc61841980eefa99fa2d87bc7939d6284ef40c7e5cc7a8793371e19836a3a5064736f6c63430008000033",
					"opcodes": "PUSH1 0x80 PUSH1 0x40 MSTORE PUSH2 0x3E8 PUSH1 0x3 SSTORE CALLVALUE DUP1 ISZERO PUSH2 0x16 JUMPI PUSH1 0x0 DUP1 REVERT JUMPDEST POP PUSH1 0x40 MLOAD PUSH2 0x60C CODESIZE SUB DUP1 PUSH2 0x60C DUP4 CODECOPY DUP2 ADD PUSH1 0x40 DUP2 SWAP1 MSTORE PUSH2 0x35 SWAP2 PUSH2 0x8F JUMP JUMPDEST PUSH1 0x0 DUP1 SLOAD PUSH1 0x1 PUSH1 0x1 PUSH1 0xA0 SHL SUB SWAP4 DUP5 AND PUSH1 0x1 PUSH1 0x1 PUSH1 0xA0 SHL SUB NOT SWAP2 DUP3 AND DUP2 OR SWAP1 SWAP3 SSTORE PUSH1 0x1 DUP1 SLOAD DUP3 AND SWAP1 SWAP3 OR SWAP1 SWAP2 SSTORE PUSH1 0x2 DUP1 SLOAD SWAP3 SWAP1 SWAP4 AND SWAP2 AND OR SWAP1 SSTORE PUSH2 0xC1 JUMP JUMPDEST DUP1 MLOAD PUSH1 0x1 PUSH1 0x1 PUSH1 0xA0 SHL SUB DUP2 AND DUP2 EQ PUSH2 0x8A JUMPI PUSH1 0x0 DUP1 REVERT JUMPDEST SWAP2 SWAP1 POP JUMP JUMPDEST PUSH1 0x0 DUP1 PUSH1 0x40 DUP4 DUP6 SUB SLT ISZERO PUSH2 0xA1 JUMPI DUP2 DUP3 REVERT JUMPDEST PUSH2 0xAA DUP4 PUSH2 0x73 JUMP JUMPDEST SWAP2 POP PUSH2 0xB8 PUSH1 0x20 DUP5 ADD PUSH2 0x73 JUMP JUMPDEST SWAP1 POP SWAP3 POP SWAP3 SWAP1 POP JUMP JUMPDEST PUSH2 0x53C DUP1 PUSH2 0xD0 PUSH1 0x0 CODECOPY PUSH1 0x0 RETURN INVALID PUSH1 0x80 PUSH1 0x40 MSTORE CALLVALUE DUP1 ISZERO PUSH2 0x10 JUMPI PUSH1 0x0 DUP1 REVERT JUMPDEST POP PUSH1 0x4 CALLDATASIZE LT PUSH2 0x57 JUMPI PUSH1 0x0 CALLDATALOAD PUSH1 0xE0 SHR DUP1 PUSH4 0x3535F48B EQ PUSH2 0x5C JUMPI DUP1 PUSH4 0x7FFDF53E EQ PUSH2 0x7A JUMPI DUP1 PUSH4 0xC42BD05A EQ PUSH2 0x8F JUMPI DUP1 PUSH4 0xEA48CFB1 EQ PUSH2 0x97 JUMPI DUP1 PUSH4 0xEE99205C EQ PUSH2 0xAC JUMPI JUMPDEST PUSH1 0x0 DUP1 REVERT JUMPDEST PUSH2 0x64 PUSH2 0xB4 JUMP JUMPDEST PUSH1 0x40 MLOAD PUSH2 0x71 SWAP2 SWAP1 PUSH2 0x434 JUMP JUMPDEST PUSH1 0x40 MLOAD DUP1 SWAP2 SUB SWAP1 RETURN JUMPDEST PUSH2 0x82 PUSH2 0xC3 JUMP JUMPDEST PUSH1 0x40 MLOAD PUSH2 0x71 SWAP2 SWAP1 PUSH2 0x4CF JUMP JUMPDEST PUSH2 0x64 PUSH2 0xC9 JUMP JUMPDEST PUSH2 0xAA PUSH2 0xA5 CALLDATASIZE PUSH1 0x4 PUSH2 0x404 JUMP JUMPDEST PUSH2 0xD8 JUMP JUMPDEST STOP JUMPDEST PUSH2 0x64 PUSH2 0x3CE JUMP JUMPDEST PUSH1 0x0 SLOAD PUSH1 0x1 PUSH1 0x1 PUSH1 0xA0 SHL SUB AND DUP2 JUMP JUMPDEST PUSH1 0x3 SLOAD DUP2 JUMP JUMPDEST PUSH1 0x2 SLOAD PUSH1 0x1 PUSH1 0x1 PUSH1 0xA0 SHL SUB AND DUP2 JUMP JUMPDEST PUSH1 0x0 DUP2 GT PUSH2 0x101 JUMPI PUSH1 0x40 MLOAD PUSH3 0x461BCD PUSH1 0xE5 SHL DUP2 MSTORE PUSH1 0x4 ADD PUSH2 0xF8 SWAP1 PUSH2 0x461 JUMP JUMPDEST PUSH1 0x40 MLOAD DUP1 SWAP2 SUB SWAP1 REVERT JUMPDEST PUSH1 0x1 SLOAD PUSH1 0x40 MLOAD PUSH4 0x60217267 PUSH1 0xE0 SHL DUP2 MSTORE PUSH1 0x0 SWAP2 PUSH1 0x1 PUSH1 0x1 PUSH1 0xA0 SHL SUB AND SWAP1 PUSH4 0x60217267 SWAP1 PUSH2 0x132 SWAP1 CALLER SWAP1 PUSH1 0x4 ADD PUSH2 0x434 JUMP JUMPDEST PUSH1 0x20 PUSH1 0x40 MLOAD DUP1 DUP4 SUB DUP2 DUP7 DUP1 EXTCODESIZE ISZERO DUP1 ISZERO PUSH2 0x14A JUMPI PUSH1 0x0 DUP1 REVERT JUMPDEST POP GAS STATICCALL ISZERO DUP1 ISZERO PUSH2 0x15E JUMPI RETURNDATASIZE PUSH1 0x0 DUP1 RETURNDATACOPY RETURNDATASIZE PUSH1 0x0 REVERT JUMPDEST POP POP POP POP PUSH1 0x40 MLOAD RETURNDATASIZE PUSH1 0x1F NOT PUSH1 0x1F DUP3 ADD AND DUP3 ADD DUP1 PUSH1 0x40 MSTORE POP DUP2 ADD SWAP1 PUSH2 0x182 SWAP2 SWAP1 PUSH2 0x41C JUMP JUMPDEST SWAP1 POP DUP2 DUP2 LT ISZERO PUSH2 0x1A4 JUMPI PUSH1 0x40 MLOAD PUSH3 0x461BCD PUSH1 0xE5 SHL DUP2 MSTORE PUSH1 0x4 ADD PUSH2 0xF8 SWAP1 PUSH2 0x498 JUMP JUMPDEST CALLER PUSH1 0x1 PUSH1 0x1 PUSH1 0xA0 SHL SUB AND PUSH32 0x5CCA6E60D92FA932734614CE13B4C2D8F7307A963C23547E639481C60C522062 DUP4 DUP4 PUSH1 0x40 MLOAD PUSH2 0x1DF SWAP3 SWAP2 SWAP1 PUSH2 0x4D8 JUMP JUMPDEST PUSH1 0x40 MLOAD DUP1 SWAP2 SUB SWAP1 LOG2 PUSH1 0x0 SLOAD PUSH1 0x40 MLOAD PUSH4 0xA9059CBB PUSH1 0xE0 SHL DUP2 MSTORE PUSH2 0xDEAD SWAP2 PUSH1 0x1 PUSH1 0x1 PUSH1 0xA0 SHL SUB AND SWAP1 PUSH4 0xA9059CBB SWAP1 PUSH2 0x21B SWAP1 DUP5 SWAP1 DUP8 SWAP1 PUSH1 0x4 ADD PUSH2 0x448 JUMP JUMPDEST PUSH1 0x20 PUSH1 0x40 MLOAD DUP1 DUP4 SUB DUP2 PUSH1 0x0 DUP8 DUP1 EXTCODESIZE ISZERO DUP1 ISZERO PUSH2 0x235 JUMPI PUSH1 0x0 DUP1 REVERT JUMPDEST POP GAS CALL ISZERO DUP1 ISZERO PUSH2 0x249 JUMPI RETURNDATASIZE PUSH1 0x0 DUP1 RETURNDATACOPY RETURNDATASIZE PUSH1 0x0 REVERT JUMPDEST POP POP POP POP PUSH1 0x40 MLOAD RETURNDATASIZE PUSH1 0x1F NOT PUSH1 0x1F DUP3 ADD AND DUP3 ADD DUP1 PUSH1 0x40 MSTORE POP DUP2 ADD SWAP1 PUSH2 0x26D SWAP2 SWAP1 PUSH2 0x3DD JUMP JUMPDEST POP CALLER PUSH1 0x1 PUSH1 0x1 PUSH1 0xA0 SHL SUB AND PUSH32 0xFD38818F5291BF0BB3A2A48AADC06BA8757865D1DABD804585338AAB3009DCB6 DUP5 PUSH1 0x40 MLOAD PUSH2 0x2A7 SWAP2 SWAP1 PUSH2 0x4CF JUMP JUMPDEST PUSH1 0x40 MLOAD DUP1 SWAP2 SUB SWAP1 LOG2 PUSH1 0x0 PUSH1 0x3 SLOAD DUP5 PUSH2 0x2BF SWAP2 SWAP1 PUSH2 0x4E6 JUMP JUMPDEST SWAP1 POP CALLER PUSH1 0x1 PUSH1 0x1 PUSH1 0xA0 SHL SUB AND PUSH32 0x606A6579F291744B661285F4E15F5B8FCB378A76AB61FA51A7A79B231EA4420 DUP3 PUSH1 0x40 MLOAD PUSH2 0x2FA SWAP2 SWAP1 PUSH2 0x4CF JUMP JUMPDEST PUSH1 0x40 MLOAD DUP1 SWAP2 SUB SWAP1 LOG2 PUSH1 0x2 SLOAD PUSH1 0x40 MLOAD PUSH4 0xA9059CBB PUSH1 0xE0 SHL DUP2 MSTORE PUSH1 0x1 PUSH1 0x1 PUSH1 0xA0 SHL SUB SWAP1 SWAP2 AND SWAP1 PUSH4 0xA9059CBB SWAP1 PUSH2 0x334 SWAP1 CALLER SWAP1 DUP6 SWAP1 PUSH1 0x4 ADD PUSH2 0x448 JUMP JUMPDEST PUSH1 0x20 PUSH1 0x40 MLOAD DUP1 DUP4 SUB DUP2 PUSH1 0x0 DUP8 DUP1 EXTCODESIZE ISZERO DUP1 ISZERO PUSH2 0x34E JUMPI PUSH1 0x0 DUP1 REVERT JUMPDEST POP GAS CALL ISZERO DUP1 ISZERO PUSH2 0x362 JUMPI RETURNDATASIZE PUSH1 0x0 DUP1 RETURNDATACOPY RETURNDATASIZE PUSH1 0x0 REVERT JUMPDEST POP POP POP POP PUSH1 0x40 MLOAD RETURNDATASIZE PUSH1 0x1F NOT PUSH1 0x1F DUP3 ADD AND DUP3 ADD DUP1 PUSH1 0x40 MSTORE POP DUP2 ADD SWAP1 PUSH2 0x386 SWAP2 SWAP1 PUSH2 0x3DD JUMP JUMPDEST POP CALLER PUSH1 0x1 PUSH1 0x1 PUSH1 0xA0 SHL SUB AND PUSH32 0x846A89B57591B6B9909FBD88E7CC9666B3F1B91AE9899DBB65170D70D56BDFC5 DUP3 PUSH1 0x40 MLOAD PUSH2 0x3C0 SWAP2 SWAP1 PUSH2 0x4CF JUMP JUMPDEST PUSH1 0x40 MLOAD DUP1 SWAP2 SUB SWAP1 LOG2 POP POP POP POP JUMP JUMPDEST PUSH1 0x1 SLOAD PUSH1 0x1 PUSH1 0x1 PUSH1 0xA0 SHL SUB AND DUP2 JUMP JUMPDEST PUSH1 0x0 PUSH1 0x20 DUP3 DUP5 SUB SLT ISZERO PUSH2 0x3EE JUMPI DUP1 DUP2 REVERT JUMPDEST DUP2 MLOAD DUP1 ISZERO ISZERO DUP2 EQ PUSH2 0x3FD JUMPI DUP2 DUP3 REVERT JUMPDEST SWAP4 SWAP3 POP POP POP JUMP JUMPDEST PUSH1 0x0 PUSH1 0x20 DUP3 DUP5 SUB SLT ISZERO PUSH2 0x415 JUMPI DUP1 DUP2 REVERT JUMPDEST POP CALLDATALOAD SWAP2 SWAP1 POP JUMP JUMPDEST PUSH1 0x0 PUSH1 0x20 DUP3 DUP5 SUB SLT ISZERO PUSH2 0x42D JUMPI DUP1 DUP2 REVERT JUMPDEST POP MLOAD SWAP2 SWAP1 POP JUMP JUMPDEST PUSH1 0x1 PUSH1 0x1 PUSH1 0xA0 SHL SUB SWAP2 SWAP1 SWAP2 AND DUP2 MSTORE PUSH1 0x20 ADD SWAP1 JUMP JUMPDEST PUSH1 0x1 PUSH1 0x1 PUSH1 0xA0 SHL SUB SWAP3 SWAP1 SWAP3 AND DUP3 MSTORE PUSH1 0x20 DUP3 ADD MSTORE PUSH1 0x40 ADD SWAP1 JUMP JUMPDEST PUSH1 0x20 DUP1 DUP3 MSTORE PUSH1 0x1D SWAP1 DUP3 ADD MSTORE PUSH32 0x416D6F756E74206D7573742062652067726561746572207468616E2030000000 PUSH1 0x40 DUP3 ADD MSTORE PUSH1 0x60 ADD SWAP1 JUMP JUMPDEST PUSH1 0x20 DUP1 DUP3 MSTORE PUSH1 0x1B SWAP1 DUP3 ADD MSTORE PUSH32 0x496E73756666696369656E74207374616B65642062616C616E63650000000000 PUSH1 0x40 DUP3 ADD MSTORE PUSH1 0x60 ADD SWAP1 JUMP JUMPDEST SWAP1 DUP2 MSTORE PUSH1 0x20 ADD SWAP1 JUMP JUMPDEST SWAP2 DUP3 MSTORE PUSH1 0x20 DUP3 ADD MSTORE PUSH1 0x40 ADD SWAP1 JUMP JUMPDEST PUSH1 0x0 DUP3 PUSH2 0x501 JUMPI PUSH4 0x4E487B71 PUSH1 0xE0 SHL DUP2 MSTORE PUSH1 0x12 PUSH1 0x4 MSTORE PUSH1 0x24 DUP2 REVERT JUMPDEST POP DIV SWAP1 JUMP INVALID LOG2 PUSH5 0x6970667358 0x22 SLT KECCAK256 SWAP16 0xC6 XOR COINBASE SWAP9 0xE 0xEF 0xA9 SWAP16 LOG2 0xD8 PUSH28 0xC7939D6284EF40C7E5CC7A8793371E19836A3A5064736F6C63430008 STOP STOP CALLER "
				},
				"gasEstimates": {
					"creation": {
						"codeDepositCost": "268000",
						"executionCost": "infinite",
						"totalCost": "infinite"
					},
					"external": {
						"burnAndTransfer(uint256)": "infinite",
						"conversionRate()": "1028",
						"newToken()": "1092",
						"stakingContract()": "1136",
						"stakingContractAddress()": "1048"
					}
				},
				"methodIdentifiers": {
					"burnAndTransfer(uint256)": "ea48cfb1",
					"conversionRate()": "7ffdf53e",
					"newToken()": "c42bd05a",
					"stakingContract()": "ee99205c",
					"stakingContractAddress()": "3535f48b"
				}
			},
			"storageLayout": {
				"storage": [
					{
						"astId": 125,
						"contract": "newburncc.sol:BurnContract",
						"label": "stakingContractAddress",
						"offset": 0,
						"slot": "0",
						"type": "t_address"
					},
					{
						"astId": 128,
						"contract": "newburncc.sol:BurnContract",
						"label": "stakingContract",
						"offset": 0,
						"slot": "1",
						"type": "t_contract(StakingContractInterface)118"
					},
					{
						"astId": 131,
						"contract": "newburncc.sol:BurnContract",
						"label": "newToken",
						"offset": 0,
						"slot": "2",
						"type": "t_contract(NewTokenInterface)89"
					},
					{
						"astId": 134,
						"contract": "newburncc.sol:BurnContract",
						"label": "conversionRate",
						"offset": 0,
						"slot": "3",
						"type": "t_uint256"
					}
				],
				"types": {
					"t_address": {
						"encoding": "inplace",
						"label": "address",
						"numberOfBytes": "20"
					},
					"t_contract(NewTokenInterface)89": {
						"encoding": "inplace",
						"label": "contract NewTokenInterface",
						"numberOfBytes": "20"
					},
					"t_contract(StakingContractInterface)118": {
						"encoding": "inplace",
						"label": "contract StakingContractInterface",
						"numberOfBytes": "20"
					},
					"t_uint256": {
						"encoding": "inplace",
						"label": "uint256",
						"numberOfBytes": "32"
					}
				}
			},
			"userdoc": {
				"kind": "user",
				"methods": {},
				"version": 1
			}
		}
	}
}