{
	"renegadetest.sol": {
		"Burning": {
			"abi": [
				{
					"inputs": [
						{
							"internalType": "address",
							"name": "_stakingContract",
							"type": "address"
						},
						{
							"internalType": "address",
							"name": "_newToken",
							"type": "address"
						}
					],
					"stateMutability": "nonpayable",
					"type": "constructor"
				},
				{
					"inputs": [
						{
							"internalType": "uint256",
							"name": "amount",
							"type": "uint256"
						}
					],
					"name": "burnStakedTokens",
					"outputs": [],
					"stateMutability": "nonpayable",
					"type": "function"
				},
				{
					"inputs": [
						{
							"internalType": "uint256",
							"name": "amount",
							"type": "uint256"
						}
					],
					"name": "depositNewTokens",
					"outputs": [],
					"stateMutability": "nonpayable",
					"type": "function"
				},
				{
					"inputs": [],
					"name": "newToken",
					"outputs": [
						{
							"internalType": "address",
							"name": "",
							"type": "address"
						}
					],
					"stateMutability": "view",
					"type": "function"
				},
				{
					"inputs": [],
					"name": "owner",
					"outputs": [
						{
							"internalType": "address",
							"name": "",
							"type": "address"
						}
					],
					"stateMutability": "view",
					"type": "function"
				},
				{
					"inputs": [],
					"name": "stakingContractAddress",
					"outputs": [
						{
							"internalType": "address",
							"name": "",
							"type": "address"
						}
					],
					"stateMutability": "view",
					"type": "function"
				}
			],
			"devdoc": {
				"kind": "dev",
				"methods": {},
				"version": 1
			},
			"evm": {
				"assembly": "    /* \"renegadetest.sol\":159:1454  contract Burning {... */\n  mstore(0x40, 0x80)\n    /* \"renegadetest.sol\":285:458  constructor(address _stakingContract, address _newToken) {... */\n  callvalue\n  dup1\n  iszero\n  tag_1\n  jumpi\n  0x00\n  dup1\n  revert\ntag_1:\n  pop\n  mload(0x40)\n  sub(codesize, bytecodeSize)\n  dup1\n  bytecodeSize\n  dup4\n  codecopy\n  dup2\n  add\n  0x40\n  dup2\n  swap1\n  mstore\n  tag_2\n  swap2\n  tag_3\n  jump\t// in\ntag_2:\n    /* \"renegadetest.sol\":352:357  owner */\n  0x00\n    /* \"renegadetest.sol\":352:370  owner = msg.sender */\n  dup1\n  sload\n  not(sub(shl(0xa0, 0x01), 0x01))\n  swap1\n  dup2\n  and\n    /* \"renegadetest.sol\":360:370  msg.sender */\n  caller\n    /* \"renegadetest.sol\":352:370  owner = msg.sender */\n  or\n  swap1\n  swap2\n  sstore\n  0x01\n    /* \"renegadetest.sol\":380:421  stakingContractAddress = _stakingContract */\n  dup1\n  sload\n  sub(shl(0xa0, 0x01), 0x01)\n  swap5\n  dup6\n  and\n  swap1\n  dup4\n  and\n  or\n  swap1\n  sstore\n    /* \"renegadetest.sol\":431:439  newToken */\n  0x02\n    /* \"renegadetest.sol\":431:451  newToken = _newToken */\n  dup1\n  sload\n  swap3\n  swap1\n  swap4\n  and\n  swap2\n  and\n  or\n  swap1\n  sstore\n    /* \"renegadetest.sol\":159:1454  contract Burning {... */\n  jump(tag_7)\n    /* \"#utility.yul\":14:193   */\ntag_8:\n    /* \"#utility.yul\":95:108   */\n  dup1\n  mload\n  sub(shl(0xa0, 0x01), 0x01)\n    /* \"#utility.yul\":137:168   */\n  dup2\n  and\n    /* \"#utility.yul\":127:169   */\n  dup2\n  eq\n    /* \"#utility.yul\":117:119   */\n  tag_10\n  jumpi\n    /* \"#utility.yul\":183:184   */\n  0x00\n    /* \"#utility.yul\":180:181   */\n  dup1\n    /* \"#utility.yul\":173:185   */\n  revert\n    /* \"#utility.yul\":117:119   */\ntag_10:\n    /* \"#utility.yul\":76:193   */\n  swap2\n  swap1\n  pop\n  jump\t// out\n    /* \"#utility.yul\":198:505   */\ntag_3:\n  0x00\n  dup1\n    /* \"#utility.yul\":338:340   */\n  0x40\n    /* \"#utility.yul\":326:335   */\n  dup4\n    /* \"#utility.yul\":317:324   */\n  dup6\n    /* \"#utility.yul\":313:336   */\n  sub\n    /* \"#utility.yul\":309:341   */\n  slt\n    /* \"#utility.yul\":306:308   */\n  iszero\n  tag_12\n  jumpi\n    /* \"#utility.yul\":359:365   */\n  dup2\n    /* \"#utility.yul\":351:357   */\n  dup3\n    /* \"#utility.yul\":344:366   */\n  revert\n    /* \"#utility.yul\":306:308   */\ntag_12:\n    /* \"#utility.yul\":387:429   */\n  tag_13\n    /* \"#utility.yul\":419:428   */\n  dup4\n    /* \"#utility.yul\":387:429   */\n  tag_8\n  jump\t// in\ntag_13:\n    /* \"#utility.yul\":377:429   */\n  swap2\n  pop\n    /* \"#utility.yul\":448:499   */\n  tag_14\n    /* \"#utility.yul\":495:497   */\n  0x20\n    /* \"#utility.yul\":484:493   */\n  dup5\n    /* \"#utility.yul\":480:498   */\n  add\n    /* \"#utility.yul\":448:499   */\n  tag_8\n  jump\t// in\ntag_14:\n    /* \"#utility.yul\":438:499   */\n  swap1\n  pop\n    /* \"#utility.yul\":296:505   */\n  swap3\n  pop\n  swap3\n  swap1\n  pop\n  jump\t// out\ntag_7:\n    /* \"renegadetest.sol\":159:1454  contract Burning {... */\n  dataSize(sub_0)\n  dup1\n  dataOffset(sub_0)\n  0x00\n  codecopy\n  0x00\n  return\nstop\n\nsub_0: assembly {\n        /* \"renegadetest.sol\":159:1454  contract Burning {... */\n      mstore(0x40, 0x80)\n      callvalue\n      dup1\n      iszero\n      tag_1\n      jumpi\n      0x00\n      dup1\n      revert\n    tag_1:\n      pop\n      jumpi(tag_2, lt(calldatasize, 0x04))\n      shr(0xe0, calldataload(0x00))\n      dup1\n      0x1afa3942\n      eq\n      tag_3\n      jumpi\n      dup1\n      0x3535f48b\n      eq\n      tag_4\n      jumpi\n      dup1\n      0x88bc519c\n      eq\n      tag_5\n      jumpi\n      dup1\n      0x8da5cb5b\n      eq\n      tag_6\n      jumpi\n      dup1\n      0xc42bd05a\n      eq\n      tag_7\n      jumpi\n    tag_2:\n      0x00\n      dup1\n      revert\n        /* \"renegadetest.sol\":1179:1452  function depositNewTokens(uint256 amount) external onlyOwner {... */\n    tag_3:\n      tag_8\n      tag_9\n      calldatasize\n      0x04\n      tag_10\n      jump\t// in\n    tag_9:\n      tag_11\n      jump\t// in\n    tag_8:\n      stop\n        /* \"renegadetest.sol\":208:245  address public stakingContractAddress */\n    tag_4:\n      tag_12\n      tag_13\n      jump\t// in\n    tag_12:\n      mload(0x40)\n      tag_14\n      swap2\n      swap1\n      tag_15\n      jump\t// in\n    tag_14:\n      mload(0x40)\n      dup1\n      swap2\n      sub\n      swap1\n      return\n        /* \"renegadetest.sol\":583:1173  function burnStakedTokens(uint256 amount) external {... */\n    tag_5:\n      tag_8\n      tag_17\n      calldatasize\n      0x04\n      tag_10\n      jump\t// in\n    tag_17:\n      tag_18\n      jump\t// in\n        /* \"renegadetest.sol\":182:202  address public owner */\n    tag_6:\n      tag_12\n      tag_20\n      jump\t// in\n        /* \"renegadetest.sol\":251:274  address public newToken */\n    tag_7:\n      tag_12\n      tag_23\n      jump\t// in\n        /* \"renegadetest.sol\":1179:1452  function depositNewTokens(uint256 amount) external onlyOwner {... */\n    tag_11:\n        /* \"renegadetest.sol\":517:522  owner */\n      and(sub(shl(0xa0, 0x01), 0x01), sload(0x00))\n        /* \"renegadetest.sol\":503:513  msg.sender */\n      caller\n        /* \"renegadetest.sol\":503:522  msg.sender == owner */\n      eq\n        /* \"renegadetest.sol\":495:555  require(msg.sender == owner, \"Only the owner can call this\") */\n      tag_26\n      jumpi\n      mload(0x40)\n      shl(0xe5, 0x461bcd)\n      dup2\n      mstore\n      0x04\n      add\n      tag_27\n      swap1\n      tag_28\n      jump\t// in\n    tag_27:\n      mload(0x40)\n      dup1\n      swap2\n      sub\n      swap1\n      revert\n    tag_26:\n        /* \"renegadetest.sol\":1267:1268  0 */\n      0x00\n        /* \"renegadetest.sol\":1258:1264  amount */\n      dup2\n        /* \"renegadetest.sol\":1258:1268  amount > 0 */\n      gt\n        /* \"renegadetest.sol\":1250:1302  require(amount > 0, \"Amount must be greater than 0\") */\n      tag_30\n      jumpi\n      mload(0x40)\n      shl(0xe5, 0x461bcd)\n      dup2\n      mstore\n      0x04\n      add\n      tag_27\n      swap1\n      tag_32\n      jump\t// in\n    tag_30:\n        /* \"renegadetest.sol\":1404:1412  newToken */\n      sload(0x02)\n        /* \"renegadetest.sol\":1392:1445  IERC20Token(newToken).transfer(address(this), amount) */\n      mload(0x40)\n      shl(0xe0, 0xa9059cbb)\n      dup2\n      mstore\n      sub(shl(0xa0, 0x01), 0x01)\n        /* \"renegadetest.sol\":1404:1412  newToken */\n      swap1\n      swap2\n      and\n      swap1\n        /* \"renegadetest.sol\":1392:1422  IERC20Token(newToken).transfer */\n      0xa9059cbb\n      swap1\n        /* \"renegadetest.sol\":1392:1445  IERC20Token(newToken).transfer(address(this), amount) */\n      tag_33\n      swap1\n        /* \"renegadetest.sol\":1431:1435  this */\n      address\n      swap1\n        /* \"renegadetest.sol\":1438:1444  amount */\n      dup6\n      swap1\n        /* \"renegadetest.sol\":1392:1445  IERC20Token(newToken).transfer(address(this), amount) */\n      0x04\n      add\n      tag_34\n      jump\t// in\n    tag_33:\n      0x20\n      mload(0x40)\n      dup1\n      dup4\n      sub\n      dup2\n      0x00\n      dup8\n      dup1\n      extcodesize\n      iszero\n      dup1\n      iszero\n      tag_35\n      jumpi\n      0x00\n      dup1\n      revert\n    tag_35:\n      pop\n      gas\n      call\n      iszero\n      dup1\n      iszero\n      tag_37\n      jumpi\n      returndatasize\n      0x00\n      dup1\n      returndatacopy\n      revert(0x00, returndatasize)\n    tag_37:\n      pop\n      pop\n      pop\n      pop\n      mload(0x40)\n      returndatasize\n      not(0x1f)\n      0x1f\n      dup3\n      add\n      and\n      dup3\n      add\n      dup1\n      0x40\n      mstore\n      pop\n      dup2\n      add\n      swap1\n      tag_38\n      swap2\n      swap1\n      tag_39\n      jump\t// in\n    tag_38:\n      pop\n        /* \"renegadetest.sol\":1179:1452  function depositNewTokens(uint256 amount) external onlyOwner {... */\n      pop\n      jump\t// out\n        /* \"renegadetest.sol\":208:245  address public stakingContractAddress */\n    tag_13:\n      and(sub(shl(0xa0, 0x01), 0x01), sload(0x01))\n      dup2\n      jump\t// out\n        /* \"renegadetest.sol\":583:1173  function burnStakedTokens(uint256 amount) external {... */\n    tag_18:\n        /* \"renegadetest.sol\":661:662  0 */\n      0x00\n        /* \"renegadetest.sol\":652:658  amount */\n      dup2\n        /* \"renegadetest.sol\":652:662  amount > 0 */\n      gt\n        /* \"renegadetest.sol\":644:696  require(amount > 0, \"Amount must be greater than 0\") */\n      tag_41\n      jumpi\n      mload(0x40)\n      shl(0xe5, 0x461bcd)\n      dup2\n      mstore\n      0x04\n      add\n      tag_27\n      swap1\n      tag_32\n      jump\t// in\n    tag_41:\n        /* \"renegadetest.sol\":765:787  stakingContractAddress */\n      sload(0x01)\n        /* \"renegadetest.sol\":822:863  stakingContract.stakedBalance(msg.sender) */\n      mload(0x40)\n      shl(0xe0, 0x60217267)\n      dup2\n      mstore\n      sub(shl(0xa0, 0x01), 0x01)\n        /* \"renegadetest.sol\":765:787  stakingContractAddress */\n      swap1\n      swap2\n      and\n      swap1\n        /* \"renegadetest.sol\":715:746  StakingContract stakingContract */\n      0x00\n      swap1\n        /* \"renegadetest.sol\":765:787  stakingContractAddress */\n      dup3\n      swap1\n        /* \"renegadetest.sol\":822:851  stakingContract.stakedBalance */\n      0x60217267\n      swap1\n        /* \"renegadetest.sol\":822:863  stakingContract.stakedBalance(msg.sender) */\n      tag_43\n      swap1\n        /* \"renegadetest.sol\":852:862  msg.sender */\n      caller\n      swap1\n        /* \"renegadetest.sol\":822:863  stakingContract.stakedBalance(msg.sender) */\n      0x04\n      add\n      tag_15\n      jump\t// in\n    tag_43:\n      0x20\n      mload(0x40)\n      dup1\n      dup4\n      sub\n      dup2\n      dup7\n      dup1\n      extcodesize\n      iszero\n      dup1\n      iszero\n      tag_44\n      jumpi\n      0x00\n      dup1\n      revert\n    tag_44:\n      pop\n      gas\n      staticcall\n      iszero\n      dup1\n      iszero\n      tag_46\n      jumpi\n      returndatasize\n      0x00\n      dup1\n      returndatacopy\n      revert(0x00, returndatasize)\n    tag_46:\n      pop\n      pop\n      pop\n      pop\n      mload(0x40)\n      returndatasize\n      not(0x1f)\n      0x1f\n      dup3\n      add\n      and\n      dup3\n      add\n      dup1\n      0x40\n      mstore\n      pop\n      dup2\n      add\n      swap1\n      tag_47\n      swap2\n      swap1\n      tag_48\n      jump\t// in\n    tag_47:\n        /* \"renegadetest.sol\":798:863  uint256 stakedBalance = stakingContract.stakedBalance(msg.sender) */\n      swap1\n      pop\n        /* \"renegadetest.sol\":907:913  amount */\n      dup3\n        /* \"renegadetest.sol\":890:903  stakedBalance */\n      dup2\n        /* \"renegadetest.sol\":890:913  stakedBalance >= amount */\n      lt\n      iszero\n        /* \"renegadetest.sol\":882:945  require(stakedBalance >= amount, \"Insufficient staked balance\") */\n      tag_49\n      jumpi\n      mload(0x40)\n      shl(0xe5, 0x461bcd)\n      dup2\n      mstore\n      0x04\n      add\n      tag_27\n      swap1\n      tag_51\n      jump\t// in\n    tag_49:\n        /* \"renegadetest.sol\":964:996  stakingContract.withdraw(amount) */\n      mload(0x40)\n      shl(0xe0, 0x2e1a7d4d)\n      dup2\n      mstore\n      sub(shl(0xa0, 0x01), 0x01)\n        /* \"renegadetest.sol\":964:988  stakingContract.withdraw */\n      dup4\n      and\n      swap1\n      0x2e1a7d4d\n      swap1\n        /* \"renegadetest.sol\":964:996  stakingContract.withdraw(amount) */\n      tag_52\n      swap1\n        /* \"renegadetest.sol\":989:995  amount */\n      dup7\n      swap1\n        /* \"renegadetest.sol\":964:996  stakingContract.withdraw(amount) */\n      0x04\n      add\n      tag_53\n      jump\t// in\n    tag_52:\n      0x00\n      mload(0x40)\n      dup1\n      dup4\n      sub\n      dup2\n      0x00\n      dup8\n      dup1\n      extcodesize\n      iszero\n      dup1\n      iszero\n      tag_54\n      jumpi\n      0x00\n      dup1\n      revert\n    tag_54:\n      pop\n      gas\n      call\n      iszero\n      dup1\n      iszero\n      tag_56\n      jumpi\n      returndatasize\n      0x00\n      dup1\n      returndatacopy\n      revert(0x00, returndatasize)\n    tag_56:\n      pop\n      pop\n        /* \"renegadetest.sol\":1128:1136  newToken */\n      sload(0x02)\n        /* \"renegadetest.sol\":1116:1166  IERC20Token(newToken).transfer(msg.sender, amount) */\n      mload(0x40)\n      shl(0xe0, 0xa9059cbb)\n      dup2\n      mstore\n      sub(shl(0xa0, 0x01), 0x01)\n        /* \"renegadetest.sol\":1128:1136  newToken */\n      swap1\n      swap2\n      and\n      swap3\n      pop\n        /* \"renegadetest.sol\":1116:1146  IERC20Token(newToken).transfer */\n      0xa9059cbb\n      swap2\n      pop\n        /* \"renegadetest.sol\":1116:1166  IERC20Token(newToken).transfer(msg.sender, amount) */\n      tag_57\n      swap1\n        /* \"renegadetest.sol\":1147:1157  msg.sender */\n      caller\n      swap1\n        /* \"renegadetest.sol\":1159:1165  amount */\n      dup8\n      swap1\n        /* \"renegadetest.sol\":1116:1166  IERC20Token(newToken).transfer(msg.sender, amount) */\n      0x04\n      add\n      tag_34\n      jump\t// in\n    tag_57:\n      0x20\n      mload(0x40)\n      dup1\n      dup4\n      sub\n      dup2\n      0x00\n      dup8\n      dup1\n      extcodesize\n      iszero\n      dup1\n      iszero\n      tag_58\n      jumpi\n      0x00\n      dup1\n      revert\n    tag_58:\n      pop\n      gas\n      call\n      iszero\n      dup1\n      iszero\n      tag_60\n      jumpi\n      returndatasize\n      0x00\n      dup1\n      returndatacopy\n      revert(0x00, returndatasize)\n    tag_60:\n      pop\n      pop\n      pop\n      pop\n      mload(0x40)\n      returndatasize\n      not(0x1f)\n      0x1f\n      dup3\n      add\n      and\n      dup3\n      add\n      dup1\n      0x40\n      mstore\n      pop\n      dup2\n      add\n      swap1\n      tag_61\n      swap2\n      swap1\n      tag_39\n      jump\t// in\n    tag_61:\n      pop\n        /* \"renegadetest.sol\":583:1173  function burnStakedTokens(uint256 amount) external {... */\n      pop\n      pop\n      pop\n      jump\t// out\n        /* \"renegadetest.sol\":182:202  address public owner */\n    tag_20:\n      and(sub(shl(0xa0, 0x01), 0x01), sload(0x00))\n      dup2\n      jump\t// out\n        /* \"renegadetest.sol\":251:274  address public newToken */\n    tag_23:\n      and(sub(shl(0xa0, 0x01), 0x01), sload(0x02))\n      dup2\n      jump\t// out\n        /* \"#utility.yul\":14:311   */\n    tag_39:\n      0x00\n        /* \"#utility.yul\":134:136   */\n      0x20\n        /* \"#utility.yul\":122:131   */\n      dup3\n        /* \"#utility.yul\":113:120   */\n      dup5\n        /* \"#utility.yul\":109:132   */\n      sub\n        /* \"#utility.yul\":105:137   */\n      slt\n        /* \"#utility.yul\":102:104   */\n      iszero\n      tag_64\n      jumpi\n        /* \"#utility.yul\":155:161   */\n      dup1\n        /* \"#utility.yul\":147:153   */\n      dup2\n        /* \"#utility.yul\":140:162   */\n      revert\n        /* \"#utility.yul\":102:104   */\n    tag_64:\n        /* \"#utility.yul\":192:201   */\n      dup2\n        /* \"#utility.yul\":186:202   */\n      mload\n        /* \"#utility.yul\":245:250   */\n      dup1\n        /* \"#utility.yul\":238:251   */\n      iszero\n        /* \"#utility.yul\":231:252   */\n      iszero\n        /* \"#utility.yul\":224:229   */\n      dup2\n        /* \"#utility.yul\":221:253   */\n      eq\n        /* \"#utility.yul\":211:213   */\n      tag_65\n      jumpi\n        /* \"#utility.yul\":272:278   */\n      dup2\n        /* \"#utility.yul\":264:270   */\n      dup3\n        /* \"#utility.yul\":257:279   */\n      revert\n        /* \"#utility.yul\":211:213   */\n    tag_65:\n        /* \"#utility.yul\":300:305   */\n      swap4\n        /* \"#utility.yul\":92:311   */\n      swap3\n      pop\n      pop\n      pop\n      jump\t// out\n        /* \"#utility.yul\":316:506   */\n    tag_10:\n      0x00\n        /* \"#utility.yul\":428:430   */\n      0x20\n        /* \"#utility.yul\":416:425   */\n      dup3\n        /* \"#utility.yul\":407:414   */\n      dup5\n        /* \"#utility.yul\":403:426   */\n      sub\n        /* \"#utility.yul\":399:431   */\n      slt\n        /* \"#utility.yul\":396:398   */\n      iszero\n      tag_67\n      jumpi\n        /* \"#utility.yul\":449:455   */\n      dup1\n        /* \"#utility.yul\":441:447   */\n      dup2\n        /* \"#utility.yul\":434:456   */\n      revert\n        /* \"#utility.yul\":396:398   */\n    tag_67:\n      pop\n        /* \"#utility.yul\":477:500   */\n      calldataload\n      swap2\n        /* \"#utility.yul\":386:506   */\n      swap1\n      pop\n      jump\t// out\n        /* \"#utility.yul\":511:705   */\n    tag_48:\n      0x00\n        /* \"#utility.yul\":634:636   */\n      0x20\n        /* \"#utility.yul\":622:631   */\n      dup3\n        /* \"#utility.yul\":613:620   */\n      dup5\n        /* \"#utility.yul\":609:632   */\n      sub\n        /* \"#utility.yul\":605:637   */\n      slt\n        /* \"#utility.yul\":602:604   */\n      iszero\n      tag_69\n      jumpi\n        /* \"#utility.yul\":655:661   */\n      dup1\n        /* \"#utility.yul\":647:653   */\n      dup2\n        /* \"#utility.yul\":640:662   */\n      revert\n        /* \"#utility.yul\":602:604   */\n    tag_69:\n      pop\n        /* \"#utility.yul\":683:699   */\n      mload\n      swap2\n        /* \"#utility.yul\":592:705   */\n      swap1\n      pop\n      jump\t// out\n        /* \"#utility.yul\":710:913   */\n    tag_15:\n      sub(shl(0xa0, 0x01), 0x01)\n        /* \"#utility.yul\":874:906   */\n      swap2\n      swap1\n      swap2\n      and\n        /* \"#utility.yul\":856:907   */\n      dup2\n      mstore\n        /* \"#utility.yul\":844:846   */\n      0x20\n        /* \"#utility.yul\":829:847   */\n      add\n      swap1\n        /* \"#utility.yul\":811:913   */\n      jump\t// out\n        /* \"#utility.yul\":918:1192   */\n    tag_34:\n      sub(shl(0xa0, 0x01), 0x01)\n        /* \"#utility.yul\":1110:1142   */\n      swap3\n      swap1\n      swap3\n      and\n        /* \"#utility.yul\":1092:1143   */\n      dup3\n      mstore\n        /* \"#utility.yul\":1174:1176   */\n      0x20\n        /* \"#utility.yul\":1159:1177   */\n      dup3\n      add\n        /* \"#utility.yul\":1152:1186   */\n      mstore\n        /* \"#utility.yul\":1080:1082   */\n      0x40\n        /* \"#utility.yul\":1065:1083   */\n      add\n      swap1\n        /* \"#utility.yul\":1047:1192   */\n      jump\t// out\n        /* \"#utility.yul\":1197:1550   */\n    tag_32:\n        /* \"#utility.yul\":1399:1401   */\n      0x20\n        /* \"#utility.yul\":1381:1402   */\n      dup1\n      dup3\n      mstore\n        /* \"#utility.yul\":1438:1440   */\n      0x1d\n        /* \"#utility.yul\":1418:1436   */\n      swap1\n      dup3\n      add\n        /* \"#utility.yul\":1411:1441   */\n      mstore\n        /* \"#utility.yul\":1477:1508   */\n      0x416d6f756e74206d7573742062652067726561746572207468616e2030000000\n        /* \"#utility.yul\":1472:1474   */\n      0x40\n        /* \"#utility.yul\":1457:1475   */\n      dup3\n      add\n        /* \"#utility.yul\":1450:1509   */\n      mstore\n        /* \"#utility.yul\":1541:1543   */\n      0x60\n        /* \"#utility.yul\":1526:1544   */\n      add\n      swap1\n        /* \"#utility.yul\":1371:1550   */\n      jump\t// out\n        /* \"#utility.yul\":1555:1906   */\n    tag_51:\n        /* \"#utility.yul\":1757:1759   */\n      0x20\n        /* \"#utility.yul\":1739:1760   */\n      dup1\n      dup3\n      mstore\n        /* \"#utility.yul\":1796:1798   */\n      0x1b\n        /* \"#utility.yul\":1776:1794   */\n      swap1\n      dup3\n      add\n        /* \"#utility.yul\":1769:1799   */\n      mstore\n        /* \"#utility.yul\":1835:1864   */\n      0x496e73756666696369656e74207374616b65642062616c616e63650000000000\n        /* \"#utility.yul\":1830:1832   */\n      0x40\n        /* \"#utility.yul\":1815:1833   */\n      dup3\n      add\n        /* \"#utility.yul\":1808:1865   */\n      mstore\n        /* \"#utility.yul\":1897:1899   */\n      0x60\n        /* \"#utility.yul\":1882:1900   */\n      add\n      swap1\n        /* \"#utility.yul\":1729:1906   */\n      jump\t// out\n        /* \"#utility.yul\":1911:2263   */\n    tag_28:\n        /* \"#utility.yul\":2113:2115   */\n      0x20\n        /* \"#utility.yul\":2095:2116   */\n      dup1\n      dup3\n      mstore\n        /* \"#utility.yul\":2152:2154   */\n      0x1c\n        /* \"#utility.yul\":2132:2150   */\n      swap1\n      dup3\n      add\n        /* \"#utility.yul\":2125:2155   */\n      mstore\n        /* \"#utility.yul\":2191:2221   */\n      0x4f6e6c7920746865206f776e65722063616e2063616c6c207468697300000000\n        /* \"#utility.yul\":2186:2188   */\n      0x40\n        /* \"#utility.yul\":2171:2189   */\n      dup3\n      add\n        /* \"#utility.yul\":2164:2222   */\n      mstore\n        /* \"#utility.yul\":2254:2256   */\n      0x60\n        /* \"#utility.yul\":2239:2257   */\n      add\n      swap1\n        /* \"#utility.yul\":2085:2263   */\n      jump\t// out\n        /* \"#utility.yul\":2268:2445   */\n    tag_53:\n        /* \"#utility.yul\":2414:2439   */\n      swap1\n      dup2\n      mstore\n        /* \"#utility.yul\":2402:2404   */\n      0x20\n        /* \"#utility.yul\":2387:2405   */\n      add\n      swap1\n        /* \"#utility.yul\":2369:2445   */\n      jump\t// out\n\n    auxdata: 0xa2646970667358221220f7a72fda7b9edce33aa5b6e01ce651bd4cdc30e3175bab01a56b6e7a6eccb6c464736f6c63430008000033\n}\n",
				"bytecode": {
					"linkReferences": {},
					"object": "608060405234801561001057600080fd5b5060405161059938038061059983398101604081905261002f91610087565b600080546001600160a01b03199081163317909155600180546001600160a01b03948516908316179055600280549290931691161790556100b9565b80516001600160a01b038116811461008257600080fd5b919050565b60008060408385031215610099578182fd5b6100a28361006b565b91506100b06020840161006b565b90509250929050565b6104d1806100c86000396000f3fe608060405234801561001057600080fd5b50600436106100575760003560e01c80631afa39421461005c5780633535f48b1461007157806388bc519c1461008f5780638da5cb5b146100a2578063c42bd05a146100aa575b600080fd5b61006f61006a366004610390565b6100b2565b005b61007961018d565b60405161008691906103c0565b60405180910390f35b61006f61009d366004610390565b61019c565b61007961034b565b61007961035a565b6000546001600160a01b031633146100e55760405162461bcd60e51b81526004016100dc9061045b565b60405180910390fd5b600081116101055760405162461bcd60e51b81526004016100dc906103ed565b60025460405163a9059cbb60e01b81526001600160a01b039091169063a9059cbb9061013790309085906004016103d4565b602060405180830381600087803b15801561015157600080fd5b505af1158015610165573d6000803e3d6000fd5b505050506040513d601f19601f820116820180604052508101906101899190610369565b5050565b6001546001600160a01b031681565b600081116101bc5760405162461bcd60e51b81526004016100dc906103ed565b600154604051636021726760e01b81526001600160a01b039091169060009082906360217267906101f19033906004016103c0565b60206040518083038186803b15801561020957600080fd5b505afa15801561021d573d6000803e3d6000fd5b505050506040513d601f19601f8201168201806040525081019061024191906103a8565b9050828110156102635760405162461bcd60e51b81526004016100dc90610424565b604051632e1a7d4d60e01b81526001600160a01b03831690632e1a7d4d9061028f908690600401610492565b600060405180830381600087803b1580156102a957600080fd5b505af11580156102bd573d6000803e3d6000fd5b505060025460405163a9059cbb60e01b81526001600160a01b03909116925063a9059cbb91506102f390339087906004016103d4565b602060405180830381600087803b15801561030d57600080fd5b505af1158015610321573d6000803e3d6000fd5b505050506040513d601f19601f820116820180604052508101906103459190610369565b50505050565b6000546001600160a01b031681565b6002546001600160a01b031681565b60006020828403121561037a578081fd5b81518015158114610389578182fd5b9392505050565b6000602082840312156103a1578081fd5b5035919050565b6000602082840312156103b9578081fd5b5051919050565b6001600160a01b0391909116815260200190565b6001600160a01b03929092168252602082015260400190565b6020808252601d908201527f416d6f756e74206d7573742062652067726561746572207468616e2030000000604082015260600190565b6020808252601b908201527f496e73756666696369656e74207374616b65642062616c616e63650000000000604082015260600190565b6020808252601c908201527f4f6e6c7920746865206f776e65722063616e2063616c6c207468697300000000604082015260600190565b9081526020019056fea2646970667358221220f7a72fda7b9edce33aa5b6e01ce651bd4cdc30e3175bab01a56b6e7a6eccb6c464736f6c63430008000033",
					"opcodes": "PUSH1 0x80 PUSH1 0x40 MSTORE CALLVALUE DUP1 ISZERO PUSH2 0x10 JUMPI PUSH1 0x0 DUP1 REVERT JUMPDEST POP PUSH1 0x40 MLOAD PUSH2 0x599 CODESIZE SUB DUP1 PUSH2 0x599 DUP4 CODECOPY DUP2 ADD PUSH1 0x40 DUP2 SWAP1 MSTORE PUSH2 0x2F SWAP2 PUSH2 0x87 JUMP JUMPDEST PUSH1 0x0 DUP1 SLOAD PUSH1 0x1 PUSH1 0x1 PUSH1 0xA0 SHL SUB NOT SWAP1 DUP2 AND CALLER OR SWAP1 SWAP2 SSTORE PUSH1 0x1 DUP1 SLOAD PUSH1 0x1 PUSH1 0x1 PUSH1 0xA0 SHL SUB SWAP5 DUP6 AND SWAP1 DUP4 AND OR SWAP1 SSTORE PUSH1 0x2 DUP1 SLOAD SWAP3 SWAP1 SWAP4 AND SWAP2 AND OR SWAP1 SSTORE PUSH2 0xB9 JUMP JUMPDEST DUP1 MLOAD PUSH1 0x1 PUSH1 0x1 PUSH1 0xA0 SHL SUB DUP2 AND DUP2 EQ PUSH2 0x82 JUMPI PUSH1 0x0 DUP1 REVERT JUMPDEST SWAP2 SWAP1 POP JUMP JUMPDEST PUSH1 0x0 DUP1 PUSH1 0x40 DUP4 DUP6 SUB SLT ISZERO PUSH2 0x99 JUMPI DUP2 DUP3 REVERT JUMPDEST PUSH2 0xA2 DUP4 PUSH2 0x6B JUMP JUMPDEST SWAP2 POP PUSH2 0xB0 PUSH1 0x20 DUP5 ADD PUSH2 0x6B JUMP JUMPDEST SWAP1 POP SWAP3 POP SWAP3 SWAP1 POP JUMP JUMPDEST PUSH2 0x4D1 DUP1 PUSH2 0xC8 PUSH1 0x0 CODECOPY PUSH1 0x0 RETURN INVALID PUSH1 0x80 PUSH1 0x40 MSTORE CALLVALUE DUP1 ISZERO PUSH2 0x10 JUMPI PUSH1 0x0 DUP1 REVERT JUMPDEST POP PUSH1 0x4 CALLDATASIZE LT PUSH2 0x57 JUMPI PUSH1 0x0 CALLDATALOAD PUSH1 0xE0 SHR DUP1 PUSH4 0x1AFA3942 EQ PUSH2 0x5C JUMPI DUP1 PUSH4 0x3535F48B EQ PUSH2 0x71 JUMPI DUP1 PUSH4 0x88BC519C EQ PUSH2 0x8F JUMPI DUP1 PUSH4 0x8DA5CB5B EQ PUSH2 0xA2 JUMPI DUP1 PUSH4 0xC42BD05A EQ PUSH2 0xAA JUMPI JUMPDEST PUSH1 0x0 DUP1 REVERT JUMPDEST PUSH2 0x6F PUSH2 0x6A CALLDATASIZE PUSH1 0x4 PUSH2 0x390 JUMP JUMPDEST PUSH2 0xB2 JUMP JUMPDEST STOP JUMPDEST PUSH2 0x79 PUSH2 0x18D JUMP JUMPDEST PUSH1 0x40 MLOAD PUSH2 0x86 SWAP2 SWAP1 PUSH2 0x3C0 JUMP JUMPDEST PUSH1 0x40 MLOAD DUP1 SWAP2 SUB SWAP1 RETURN JUMPDEST PUSH2 0x6F PUSH2 0x9D CALLDATASIZE PUSH1 0x4 PUSH2 0x390 JUMP JUMPDEST PUSH2 0x19C JUMP JUMPDEST PUSH2 0x79 PUSH2 0x34B JUMP JUMPDEST PUSH2 0x79 PUSH2 0x35A JUMP JUMPDEST PUSH1 0x0 SLOAD PUSH1 0x1 PUSH1 0x1 PUSH1 0xA0 SHL SUB AND CALLER EQ PUSH2 0xE5 JUMPI PUSH1 0x40 MLOAD PUSH3 0x461BCD PUSH1 0xE5 SHL DUP2 MSTORE PUSH1 0x4 ADD PUSH2 0xDC SWAP1 PUSH2 0x45B JUMP JUMPDEST PUSH1 0x40 MLOAD DUP1 SWAP2 SUB SWAP1 REVERT JUMPDEST PUSH1 0x0 DUP2 GT PUSH2 0x105 JUMPI PUSH1 0x40 MLOAD PUSH3 0x461BCD PUSH1 0xE5 SHL DUP2 MSTORE PUSH1 0x4 ADD PUSH2 0xDC SWAP1 PUSH2 0x3ED JUMP JUMPDEST PUSH1 0x2 SLOAD PUSH1 0x40 MLOAD PUSH4 0xA9059CBB PUSH1 0xE0 SHL DUP2 MSTORE PUSH1 0x1 PUSH1 0x1 PUSH1 0xA0 SHL SUB SWAP1 SWAP2 AND SWAP1 PUSH4 0xA9059CBB SWAP1 PUSH2 0x137 SWAP1 ADDRESS SWAP1 DUP6 SWAP1 PUSH1 0x4 ADD PUSH2 0x3D4 JUMP JUMPDEST PUSH1 0x20 PUSH1 0x40 MLOAD DUP1 DUP4 SUB DUP2 PUSH1 0x0 DUP8 DUP1 EXTCODESIZE ISZERO DUP1 ISZERO PUSH2 0x151 JUMPI PUSH1 0x0 DUP1 REVERT JUMPDEST POP GAS CALL ISZERO DUP1 ISZERO PUSH2 0x165 JUMPI RETURNDATASIZE PUSH1 0x0 DUP1 RETURNDATACOPY RETURNDATASIZE PUSH1 0x0 REVERT JUMPDEST POP POP POP POP PUSH1 0x40 MLOAD RETURNDATASIZE PUSH1 0x1F NOT PUSH1 0x1F DUP3 ADD AND DUP3 ADD DUP1 PUSH1 0x40 MSTORE POP DUP2 ADD SWAP1 PUSH2 0x189 SWAP2 SWAP1 PUSH2 0x369 JUMP JUMPDEST POP POP JUMP JUMPDEST PUSH1 0x1 SLOAD PUSH1 0x1 PUSH1 0x1 PUSH1 0xA0 SHL SUB AND DUP2 JUMP JUMPDEST PUSH1 0x0 DUP2 GT PUSH2 0x1BC JUMPI PUSH1 0x40 MLOAD PUSH3 0x461BCD PUSH1 0xE5 SHL DUP2 MSTORE PUSH1 0x4 ADD PUSH2 0xDC SWAP1 PUSH2 0x3ED JUMP JUMPDEST PUSH1 0x1 SLOAD PUSH1 0x40 MLOAD PUSH4 0x60217267 PUSH1 0xE0 SHL DUP2 MSTORE PUSH1 0x1 PUSH1 0x1 PUSH1 0xA0 SHL SUB SWAP1 SWAP2 AND SWAP1 PUSH1 0x0 SWAP1 DUP3 SWAP1 PUSH4 0x60217267 SWAP1 PUSH2 0x1F1 SWAP1 CALLER SWAP1 PUSH1 0x4 ADD PUSH2 0x3C0 JUMP JUMPDEST PUSH1 0x20 PUSH1 0x40 MLOAD DUP1 DUP4 SUB DUP2 DUP7 DUP1 EXTCODESIZE ISZERO DUP1 ISZERO PUSH2 0x209 JUMPI PUSH1 0x0 DUP1 REVERT JUMPDEST POP GAS STATICCALL ISZERO DUP1 ISZERO PUSH2 0x21D JUMPI RETURNDATASIZE PUSH1 0x0 DUP1 RETURNDATACOPY RETURNDATASIZE PUSH1 0x0 REVERT JUMPDEST POP POP POP POP PUSH1 0x40 MLOAD RETURNDATASIZE PUSH1 0x1F NOT PUSH1 0x1F DUP3 ADD AND DUP3 ADD DUP1 PUSH1 0x40 MSTORE POP DUP2 ADD SWAP1 PUSH2 0x241 SWAP2 SWAP1 PUSH2 0x3A8 JUMP JUMPDEST SWAP1 POP DUP3 DUP2 LT ISZERO PUSH2 0x263 JUMPI PUSH1 0x40 MLOAD PUSH3 0x461BCD PUSH1 0xE5 SHL DUP2 MSTORE PUSH1 0x4 ADD PUSH2 0xDC SWAP1 PUSH2 0x424 JUMP JUMPDEST PUSH1 0x40 MLOAD PUSH4 0x2E1A7D4D PUSH1 0xE0 SHL DUP2 MSTORE PUSH1 0x1 PUSH1 0x1 PUSH1 0xA0 SHL SUB DUP4 AND SWAP1 PUSH4 0x2E1A7D4D SWAP1 PUSH2 0x28F SWAP1 DUP7 SWAP1 PUSH1 0x4 ADD PUSH2 0x492 JUMP JUMPDEST PUSH1 0x0 PUSH1 0x40 MLOAD DUP1 DUP4 SUB DUP2 PUSH1 0x0 DUP8 DUP1 EXTCODESIZE ISZERO DUP1 ISZERO PUSH2 0x2A9 JUMPI PUSH1 0x0 DUP1 REVERT JUMPDEST POP GAS CALL ISZERO DUP1 ISZERO PUSH2 0x2BD JUMPI RETURNDATASIZE PUSH1 0x0 DUP1 RETURNDATACOPY RETURNDATASIZE PUSH1 0x0 REVERT JUMPDEST POP POP PUSH1 0x2 SLOAD PUSH1 0x40 MLOAD PUSH4 0xA9059CBB PUSH1 0xE0 SHL DUP2 MSTORE PUSH1 0x1 PUSH1 0x1 PUSH1 0xA0 SHL SUB SWAP1 SWAP2 AND SWAP3 POP PUSH4 0xA9059CBB SWAP2 POP PUSH2 0x2F3 SWAP1 CALLER SWAP1 DUP8 SWAP1 PUSH1 0x4 ADD PUSH2 0x3D4 JUMP JUMPDEST PUSH1 0x20 PUSH1 0x40 MLOAD DUP1 DUP4 SUB DUP2 PUSH1 0x0 DUP8 DUP1 EXTCODESIZE ISZERO DUP1 ISZERO PUSH2 0x30D JUMPI PUSH1 0x0 DUP1 REVERT JUMPDEST POP GAS CALL ISZERO DUP1 ISZERO PUSH2 0x321 JUMPI RETURNDATASIZE PUSH1 0x0 DUP1 RETURNDATACOPY RETURNDATASIZE PUSH1 0x0 REVERT JUMPDEST POP POP POP POP PUSH1 0x40 MLOAD RETURNDATASIZE PUSH1 0x1F NOT PUSH1 0x1F DUP3 ADD AND DUP3 ADD DUP1 PUSH1 0x40 MSTORE POP DUP2 ADD SWAP1 PUSH2 0x345 SWAP2 SWAP1 PUSH2 0x369 JUMP JUMPDEST POP POP POP POP JUMP JUMPDEST PUSH1 0x0 SLOAD PUSH1 0x1 PUSH1 0x1 PUSH1 0xA0 SHL SUB AND DUP2 JUMP JUMPDEST PUSH1 0x2 SLOAD PUSH1 0x1 PUSH1 0x1 PUSH1 0xA0 SHL SUB AND DUP2 JUMP JUMPDEST PUSH1 0x0 PUSH1 0x20 DUP3 DUP5 SUB SLT ISZERO PUSH2 0x37A JUMPI DUP1 DUP2 REVERT JUMPDEST DUP2 MLOAD DUP1 ISZERO ISZERO DUP2 EQ PUSH2 0x389 JUMPI DUP2 DUP3 REVERT JUMPDEST SWAP4 SWAP3 POP POP POP JUMP JUMPDEST PUSH1 0x0 PUSH1 0x20 DUP3 DUP5 SUB SLT ISZERO PUSH2 0x3A1 JUMPI DUP1 DUP2 REVERT JUMPDEST POP CALLDATALOAD SWAP2 SWAP1 POP JUMP JUMPDEST PUSH1 0x0 PUSH1 0x20 DUP3 DUP5 SUB SLT ISZERO PUSH2 0x3B9 JUMPI DUP1 DUP2 REVERT JUMPDEST POP MLOAD SWAP2 SWAP1 POP JUMP JUMPDEST PUSH1 0x1 PUSH1 0x1 PUSH1 0xA0 SHL SUB SWAP2 SWAP1 SWAP2 AND DUP2 MSTORE PUSH1 0x20 ADD SWAP1 JUMP JUMPDEST PUSH1 0x1 PUSH1 0x1 PUSH1 0xA0 SHL SUB SWAP3 SWAP1 SWAP3 AND DUP3 MSTORE PUSH1 0x20 DUP3 ADD MSTORE PUSH1 0x40 ADD SWAP1 JUMP JUMPDEST PUSH1 0x20 DUP1 DUP3 MSTORE PUSH1 0x1D SWAP1 DUP3 ADD MSTORE PUSH32 0x416D6F756E74206D7573742062652067726561746572207468616E2030000000 PUSH1 0x40 DUP3 ADD MSTORE PUSH1 0x60 ADD SWAP1 JUMP JUMPDEST PUSH1 0x20 DUP1 DUP3 MSTORE PUSH1 0x1B SWAP1 DUP3 ADD MSTORE PUSH32 0x496E73756666696369656E74207374616B65642062616C616E63650000000000 PUSH1 0x40 DUP3 ADD MSTORE PUSH1 0x60 ADD SWAP1 JUMP JUMPDEST PUSH1 0x20 DUP1 DUP3 MSTORE PUSH1 0x1C SWAP1 DUP3 ADD MSTORE PUSH32 0x4F6E6C7920746865206F776E65722063616E2063616C6C207468697300000000 PUSH1 0x40 DUP3 ADD MSTORE PUSH1 0x60 ADD SWAP1 JUMP JUMPDEST SWAP1 DUP2 MSTORE PUSH1 0x20 ADD SWAP1 JUMP INVALID LOG2 PUSH5 0x6970667358 0x22 SLT KECCAK256 0xF7 0xA7 0x2F 0xDA PUSH28 0x9EDCE33AA5B6E01CE651BD4CDC30E3175BAB01A56B6E7A6ECCB6C464 PUSH20 0x6F6C634300080000330000000000000000000000 "
				},
				"gasEstimates": {
					"creation": {
						"codeDepositCost": "246600",
						"executionCost": "infinite",
						"totalCost": "infinite"
					},
					"external": {
						"burnStakedTokens(uint256)": "infinite",
						"depositNewTokens(uint256)": "infinite",
						"newToken()": "1136",
						"owner()": "1114",
						"stakingContractAddress()": "1070"
					}
				},
				"methodIdentifiers": {
					"burnStakedTokens(uint256)": "88bc519c",
					"depositNewTokens(uint256)": "1afa3942",
					"newToken()": "c42bd05a",
					"owner()": "8da5cb5b",
					"stakingContractAddress()": "3535f48b"
				}
			},
			"storageLayout": {
				"storage": [
					{
						"astId": 194,
						"contract": "renegadetest.sol:Burning",
						"label": "owner",
						"offset": 0,
						"slot": "0",
						"type": "t_address"
					},
					{
						"astId": 196,
						"contract": "renegadetest.sol:Burning",
						"label": "stakingContractAddress",
						"offset": 0,
						"slot": "1",
						"type": "t_address"
					},
					{
						"astId": 198,
						"contract": "renegadetest.sol:Burning",
						"label": "newToken",
						"offset": 0,
						"slot": "2",
						"type": "t_address"
					}
				],
				"types": {
					"t_address": {
						"encoding": "inplace",
						"label": "address",
						"numberOfBytes": "20"
					}
				}
			},
			"userdoc": {
				"kind": "user",
				"methods": {},
				"version": 1
			}
		}
	}
}