{
	"StakingContract.sol": {
		"StakingContract": {
			"abi": [
				{
					"inputs": [
						{
							"internalType": "address",
							"name": "_token",
							"type": "address"
						}
					],
					"stateMutability": "nonpayable",
					"type": "constructor"
				},
				{
					"anonymous": false,
					"inputs": [
						{
							"indexed": true,
							"internalType": "address",
							"name": "user",
							"type": "address"
						},
						{
							"indexed": false,
							"internalType": "uint256",
							"name": "amount",
							"type": "uint256"
						}
					],
					"name": "Staked",
					"type": "event"
				},
				{
					"anonymous": false,
					"inputs": [
						{
							"indexed": true,
							"internalType": "address",
							"name": "user",
							"type": "address"
						},
						{
							"indexed": false,
							"internalType": "uint256",
							"name": "amount",
							"type": "uint256"
						}
					],
					"name": "Withdrawn",
					"type": "event"
				},
				{
					"inputs": [],
					"name": "owner",
					"outputs": [
						{
							"internalType": "address",
							"name": "",
							"type": "address"
						}
					],
					"stateMutability": "view",
					"type": "function"
				},
				{
					"inputs": [
						{
							"internalType": "uint256",
							"name": "amount",
							"type": "uint256"
						}
					],
					"name": "stake",
					"outputs": [],
					"stateMutability": "nonpayable",
					"type": "function"
				},
				{
					"inputs": [
						{
							"internalType": "address",
							"name": "",
							"type": "address"
						}
					],
					"name": "stakedBalance",
					"outputs": [
						{
							"internalType": "uint256",
							"name": "",
							"type": "uint256"
						}
					],
					"stateMutability": "view",
					"type": "function"
				},
				{
					"inputs": [],
					"name": "token",
					"outputs": [
						{
							"internalType": "address",
							"name": "",
							"type": "address"
						}
					],
					"stateMutability": "view",
					"type": "function"
				},
				{
					"inputs": [],
					"name": "totalStaked",
					"outputs": [
						{
							"internalType": "uint256",
							"name": "",
							"type": "uint256"
						}
					],
					"stateMutability": "view",
					"type": "function"
				},
				{
					"inputs": [
						{
							"internalType": "uint256",
							"name": "amount",
							"type": "uint256"
						}
					],
					"name": "withdraw",
					"outputs": [],
					"stateMutability": "nonpayable",
					"type": "function"
				}
			],
			"devdoc": {
				"kind": "dev",
				"methods": {},
				"version": 1
			},
			"evm": {
				"assembly": "    /* \"StakingContract.sol\":57:1345  contract StakingContract {... */\n  mstore(0x40, 0x80)\n    /* \"StakingContract.sol\":343:430  constructor(address _token) {... */\n  callvalue\n  dup1\n  iszero\n  tag_1\n  jumpi\n  0x00\n  dup1\n  revert\ntag_1:\n  pop\n  mload(0x40)\n  sub(codesize, bytecodeSize)\n  dup1\n  bytecodeSize\n  dup4\n  codecopy\n  dup2\n  add\n  0x40\n  dup2\n  swap1\n  mstore\n  tag_2\n  swap2\n  tag_3\n  jump\t// in\ntag_2:\n    /* \"StakingContract.sol\":381:386  owner */\n  0x00\n    /* \"StakingContract.sol\":381:399  owner = msg.sender */\n  dup1\n  sload\n    /* \"StakingContract.sol\":389:399  msg.sender */\n  caller\n  not(sub(shl(0xa0, 0x01), 0x01))\n    /* \"StakingContract.sol\":381:399  owner = msg.sender */\n  swap2\n  dup3\n  and\n  or\n  swap1\n  swap2\n  sstore\n  0x01\n    /* \"StakingContract.sol\":409:423  token = _token */\n  dup1\n  sload\n  swap1\n  swap2\n  and\n  sub(shl(0xa0, 0x01), 0x01)\n  swap3\n  swap1\n  swap3\n  and\n  swap2\n  swap1\n  swap2\n  or\n  swap1\n  sstore\n    /* \"StakingContract.sol\":57:1345  contract StakingContract {... */\n  jump(tag_7)\n    /* \"#utility.yul\":14:324   */\ntag_3:\n  0x00\n    /* \"#utility.yul\":137:139   */\n  0x20\n    /* \"#utility.yul\":125:134   */\n  dup3\n    /* \"#utility.yul\":116:123   */\n  dup5\n    /* \"#utility.yul\":112:135   */\n  sub\n    /* \"#utility.yul\":108:140   */\n  slt\n    /* \"#utility.yul\":105:107   */\n  iszero\n  tag_9\n  jumpi\n    /* \"#utility.yul\":158:164   */\n  dup1\n    /* \"#utility.yul\":150:156   */\n  dup2\n    /* \"#utility.yul\":143:165   */\n  revert\n    /* \"#utility.yul\":105:107   */\ntag_9:\n    /* \"#utility.yul\":189:205   */\n  dup2\n  mload\n  sub(shl(0xa0, 0x01), 0x01)\n    /* \"#utility.yul\":234:265   */\n  dup2\n  and\n    /* \"#utility.yul\":224:266   */\n  dup2\n  eq\n    /* \"#utility.yul\":214:216   */\n  tag_10\n  jumpi\n    /* \"#utility.yul\":285:291   */\n  dup2\n    /* \"#utility.yul\":277:283   */\n  dup3\n    /* \"#utility.yul\":270:292   */\n  revert\n    /* \"#utility.yul\":214:216   */\ntag_10:\n    /* \"#utility.yul\":313:318   */\n  swap4\n    /* \"#utility.yul\":95:324   */\n  swap3\n  pop\n  pop\n  pop\n  jump\t// out\ntag_7:\n    /* \"StakingContract.sol\":57:1345  contract StakingContract {... */\n  dataSize(sub_0)\n  dup1\n  dataOffset(sub_0)\n  0x00\n  codecopy\n  0x00\n  return\nstop\n\nsub_0: assembly {\n        /* \"StakingContract.sol\":57:1345  contract StakingContract {... */\n      mstore(0x40, 0x80)\n      callvalue\n      dup1\n      iszero\n      tag_1\n      jumpi\n      0x00\n      dup1\n      revert\n    tag_1:\n      pop\n      jumpi(tag_2, lt(calldatasize, 0x04))\n      shr(0xe0, calldataload(0x00))\n      dup1\n      0x2e1a7d4d\n      eq\n      tag_3\n      jumpi\n      dup1\n      0x60217267\n      eq\n      tag_4\n      jumpi\n      dup1\n      0x817b1cd2\n      eq\n      tag_5\n      jumpi\n      dup1\n      0x8da5cb5b\n      eq\n      tag_6\n      jumpi\n      dup1\n      0xa694fc3a\n      eq\n      tag_7\n      jumpi\n      dup1\n      0xfc0c546a\n      eq\n      tag_8\n      jumpi\n    tag_2:\n      0x00\n      dup1\n      revert\n        /* \"StakingContract.sol\":972:1343  function withdraw(uint256 amount) external {... */\n    tag_3:\n      tag_9\n      tag_10\n      calldatasize\n      0x04\n      tag_11\n      jump\t// in\n    tag_10:\n      tag_12\n      jump\t// in\n    tag_9:\n      stop\n        /* \"StakingContract.sol\":172:220  mapping(address => uint256) public stakedBalance */\n    tag_4:\n      tag_13\n      tag_14\n      calldatasize\n      0x04\n      tag_15\n      jump\t// in\n    tag_14:\n      tag_16\n      jump\t// in\n    tag_13:\n      mload(0x40)\n      tag_17\n      swap2\n      swap1\n      tag_18\n      jump\t// in\n    tag_17:\n      mload(0x40)\n      dup1\n      swap2\n      sub\n      swap1\n      return\n        /* \"StakingContract.sol\":140:166  uint256 public totalStaked */\n    tag_5:\n      tag_13\n      tag_20\n      jump\t// in\n        /* \"StakingContract.sol\":88:108  address public owner */\n    tag_6:\n      tag_22\n      tag_23\n      jump\t// in\n    tag_22:\n      mload(0x40)\n      tag_17\n      swap2\n      swap1\n      tag_25\n      jump\t// in\n        /* \"StakingContract.sol\":551:966  function stake(uint256 amount) external {... */\n    tag_7:\n      tag_9\n      tag_27\n      calldatasize\n      0x04\n      tag_11\n      jump\t// in\n    tag_27:\n      tag_28\n      jump\t// in\n        /* \"StakingContract.sol\":114:134  address public token */\n    tag_8:\n      tag_22\n      tag_30\n      jump\t// in\n        /* \"StakingContract.sol\":972:1343  function withdraw(uint256 amount) external {... */\n    tag_12:\n        /* \"StakingContract.sol\":1042:1043  0 */\n      0x00\n        /* \"StakingContract.sol\":1033:1039  amount */\n      dup2\n        /* \"StakingContract.sol\":1033:1043  amount > 0 */\n      gt\n        /* \"StakingContract.sol\":1025:1077  require(amount > 0, \"Amount must be greater than 0\") */\n      tag_33\n      jumpi\n      mload(0x40)\n      shl(0xe5, 0x461bcd)\n      dup2\n      mstore\n      0x04\n      add\n      tag_34\n      swap1\n      tag_35\n      jump\t// in\n    tag_34:\n      mload(0x40)\n      dup1\n      swap2\n      sub\n      swap1\n      revert\n    tag_33:\n        /* \"StakingContract.sol\":1109:1119  msg.sender */\n      caller\n        /* \"StakingContract.sol\":1095:1120  stakedBalance[msg.sender] */\n      0x00\n      swap1\n      dup2\n      mstore\n        /* \"StakingContract.sol\":1095:1108  stakedBalance */\n      0x03\n        /* \"StakingContract.sol\":1095:1120  stakedBalance[msg.sender] */\n      0x20\n      mstore\n      0x40\n      swap1\n      keccak256\n      sload\n        /* \"StakingContract.sol\":1095:1130  stakedBalance[msg.sender] >= amount */\n      dup2\n      gt\n      iszero\n        /* \"StakingContract.sol\":1087:1162  require(stakedBalance[msg.sender] >= amount, \"Insufficient staked balance\") */\n      tag_36\n      jumpi\n      mload(0x40)\n      shl(0xe5, 0x461bcd)\n      dup2\n      mstore\n      0x04\n      add\n      tag_34\n      swap1\n      tag_38\n      jump\t// in\n    tag_36:\n        /* \"StakingContract.sol\":1187:1197  msg.sender */\n      caller\n        /* \"StakingContract.sol\":1173:1198  stakedBalance[msg.sender] */\n      0x00\n      swap1\n      dup2\n      mstore\n        /* \"StakingContract.sol\":1173:1186  stakedBalance */\n      0x03\n        /* \"StakingContract.sol\":1173:1198  stakedBalance[msg.sender] */\n      0x20\n      mstore\n      0x40\n      dup2\n      keccak256\n        /* \"StakingContract.sol\":1173:1208  stakedBalance[msg.sender] -= amount */\n      dup1\n      sload\n        /* \"StakingContract.sol\":1202:1208  amount */\n      dup4\n      swap3\n        /* \"StakingContract.sol\":1173:1198  stakedBalance[msg.sender] */\n      swap1\n        /* \"StakingContract.sol\":1173:1208  stakedBalance[msg.sender] -= amount */\n      tag_39\n      swap1\n        /* \"StakingContract.sol\":1202:1208  amount */\n      dup5\n      swap1\n        /* \"StakingContract.sol\":1173:1208  stakedBalance[msg.sender] -= amount */\n      tag_40\n      jump\t// in\n    tag_39:\n      swap3\n      pop\n      pop\n      dup2\n      swap1\n      sstore\n      pop\n        /* \"StakingContract.sol\":1233:1239  amount */\n      dup1\n        /* \"StakingContract.sol\":1218:1229  totalStaked */\n      0x02\n      0x00\n        /* \"StakingContract.sol\":1218:1239  totalStaked -= amount */\n      dup3\n      dup3\n      sload\n      tag_41\n      swap2\n      swap1\n      tag_40\n      jump\t// in\n    tag_41:\n      swap1\n      swap2\n      sstore\n      pop\n      pop\n        /* \"StakingContract.sol\":1256:1261  token */\n      sload(0x01)\n        /* \"StakingContract.sol\":1249:1291  IERC20(token).transfer(msg.sender, amount) */\n      mload(0x40)\n      shl(0xe0, 0xa9059cbb)\n      dup2\n      mstore\n      sub(shl(0xa0, 0x01), 0x01)\n        /* \"StakingContract.sol\":1256:1261  token */\n      swap1\n      swap2\n      and\n      swap1\n        /* \"StakingContract.sol\":1249:1271  IERC20(token).transfer */\n      0xa9059cbb\n      swap1\n        /* \"StakingContract.sol\":1249:1291  IERC20(token).transfer(msg.sender, amount) */\n      tag_42\n      swap1\n        /* \"StakingContract.sol\":1272:1282  msg.sender */\n      caller\n      swap1\n        /* \"StakingContract.sol\":1284:1290  amount */\n      dup6\n      swap1\n        /* \"StakingContract.sol\":1249:1291  IERC20(token).transfer(msg.sender, amount) */\n      0x04\n      add\n      tag_43\n      jump\t// in\n    tag_42:\n      0x20\n      mload(0x40)\n      dup1\n      dup4\n      sub\n      dup2\n      0x00\n      dup8\n      dup1\n      extcodesize\n      iszero\n      dup1\n      iszero\n      tag_44\n      jumpi\n      0x00\n      dup1\n      revert\n    tag_44:\n      pop\n      gas\n      call\n      iszero\n      dup1\n      iszero\n      tag_46\n      jumpi\n      returndatasize\n      0x00\n      dup1\n      returndatacopy\n      revert(0x00, returndatasize)\n    tag_46:\n      pop\n      pop\n      pop\n      pop\n      mload(0x40)\n      returndatasize\n      not(0x1f)\n      0x1f\n      dup3\n      add\n      and\n      dup3\n      add\n      dup1\n      0x40\n      mstore\n      pop\n      dup2\n      add\n      swap1\n      tag_47\n      swap2\n      swap1\n      tag_48\n      jump\t// in\n    tag_47:\n      pop\n        /* \"StakingContract.sol\":1317:1327  msg.sender */\n      caller\n      sub(shl(0xa0, 0x01), 0x01)\n        /* \"StakingContract.sol\":1307:1336  Withdrawn(msg.sender, amount) */\n      and\n      0x7084f5476618d8e60b11ef0d7d3f06914655adb8793e28ff7f018d4c76d505d5\n        /* \"StakingContract.sol\":1329:1335  amount */\n      dup3\n        /* \"StakingContract.sol\":1307:1336  Withdrawn(msg.sender, amount) */\n      mload(0x40)\n      tag_49\n      swap2\n      swap1\n      tag_18\n      jump\t// in\n    tag_49:\n      mload(0x40)\n      dup1\n      swap2\n      sub\n      swap1\n      log2\n        /* \"StakingContract.sol\":972:1343  function withdraw(uint256 amount) external {... */\n      pop\n      jump\t// out\n        /* \"StakingContract.sol\":172:220  mapping(address => uint256) public stakedBalance */\n    tag_16:\n      mstore(0x20, 0x03)\n      0x00\n      swap1\n      dup2\n      mstore\n      0x40\n      swap1\n      keccak256\n      sload\n      dup2\n      jump\t// out\n        /* \"StakingContract.sol\":140:166  uint256 public totalStaked */\n    tag_20:\n      sload(0x02)\n      dup2\n      jump\t// out\n        /* \"StakingContract.sol\":88:108  address public owner */\n    tag_23:\n      and(sub(shl(0xa0, 0x01), 0x01), sload(0x00))\n      dup2\n      jump\t// out\n        /* \"StakingContract.sol\":551:966  function stake(uint256 amount) external {... */\n    tag_28:\n        /* \"StakingContract.sol\":618:619  0 */\n      0x00\n        /* \"StakingContract.sol\":609:615  amount */\n      dup2\n        /* \"StakingContract.sol\":609:619  amount > 0 */\n      gt\n        /* \"StakingContract.sol\":601:653  require(amount > 0, \"Amount must be greater than 0\") */\n      tag_51\n      jumpi\n      mload(0x40)\n      shl(0xe5, 0x461bcd)\n      dup2\n      mstore\n      0x04\n      add\n      tag_34\n      swap1\n      tag_35\n      jump\t// in\n    tag_51:\n        /* \"StakingContract.sol\":716:721  token */\n      sload(0x01)\n        /* \"StakingContract.sol\":709:744  IERC20(token).balanceOf(msg.sender) */\n      mload(0x40)\n      shl(0xe0, 0x70a08231)\n      dup2\n      mstore\n      sub(shl(0xa0, 0x01), 0x01)\n        /* \"StakingContract.sol\":716:721  token */\n      swap1\n      swap2\n      and\n      swap1\n        /* \"StakingContract.sol\":709:732  IERC20(token).balanceOf */\n      0x70a08231\n      swap1\n        /* \"StakingContract.sol\":709:744  IERC20(token).balanceOf(msg.sender) */\n      tag_53\n      swap1\n        /* \"StakingContract.sol\":733:743  msg.sender */\n      caller\n      swap1\n        /* \"StakingContract.sol\":709:744  IERC20(token).balanceOf(msg.sender) */\n      0x04\n      add\n      tag_25\n      jump\t// in\n    tag_53:\n      0x20\n      mload(0x40)\n      dup1\n      dup4\n      sub\n      dup2\n      dup7\n      dup1\n      extcodesize\n      iszero\n      dup1\n      iszero\n      tag_54\n      jumpi\n      0x00\n      dup1\n      revert\n    tag_54:\n      pop\n      gas\n      staticcall\n      iszero\n      dup1\n      iszero\n      tag_56\n      jumpi\n      returndatasize\n      0x00\n      dup1\n      returndatacopy\n      revert(0x00, returndatasize)\n    tag_56:\n      pop\n      pop\n      pop\n      pop\n      mload(0x40)\n      returndatasize\n      not(0x1f)\n      0x1f\n      dup3\n      add\n      and\n      dup3\n      add\n      dup1\n      0x40\n      mstore\n      pop\n      dup2\n      add\n      swap1\n      tag_57\n      swap2\n      swap1\n      tag_58\n      jump\t// in\n    tag_57:\n        /* \"StakingContract.sol\":685:695  msg.sender */\n      caller\n        /* \"StakingContract.sol\":671:696  stakedBalance[msg.sender] */\n      0x00\n      swap1\n      dup2\n      mstore\n        /* \"StakingContract.sol\":671:684  stakedBalance */\n      0x03\n        /* \"StakingContract.sol\":671:696  stakedBalance[msg.sender] */\n      0x20\n      mstore\n      0x40\n      swap1\n      keccak256\n      sload\n        /* \"StakingContract.sol\":671:705  stakedBalance[msg.sender] + amount */\n      tag_59\n      swap1\n        /* \"StakingContract.sol\":699:705  amount */\n      dup4\n      swap1\n        /* \"StakingContract.sol\":671:705  stakedBalance[msg.sender] + amount */\n      tag_60\n      jump\t// in\n    tag_59:\n        /* \"StakingContract.sol\":671:744  stakedBalance[msg.sender] + amount <= IERC20(token).balanceOf(msg.sender) */\n      gt\n      iszero\n        /* \"StakingContract.sol\":663:769  require(stakedBalance[msg.sender] + amount <= IERC20(token).balanceOf(msg.sender), \"Insufficient balance\") */\n      tag_61\n      jumpi\n      mload(0x40)\n      shl(0xe5, 0x461bcd)\n      dup2\n      mstore\n      0x04\n      add\n      tag_34\n      swap1\n      tag_63\n      jump\t// in\n    tag_61:\n        /* \"StakingContract.sol\":794:804  msg.sender */\n      caller\n        /* \"StakingContract.sol\":780:805  stakedBalance[msg.sender] */\n      0x00\n      swap1\n      dup2\n      mstore\n        /* \"StakingContract.sol\":780:793  stakedBalance */\n      0x03\n        /* \"StakingContract.sol\":780:805  stakedBalance[msg.sender] */\n      0x20\n      mstore\n      0x40\n      dup2\n      keccak256\n        /* \"StakingContract.sol\":780:815  stakedBalance[msg.sender] += amount */\n      dup1\n      sload\n        /* \"StakingContract.sol\":809:815  amount */\n      dup4\n      swap3\n        /* \"StakingContract.sol\":780:805  stakedBalance[msg.sender] */\n      swap1\n        /* \"StakingContract.sol\":780:815  stakedBalance[msg.sender] += amount */\n      tag_64\n      swap1\n        /* \"StakingContract.sol\":809:815  amount */\n      dup5\n      swap1\n        /* \"StakingContract.sol\":780:815  stakedBalance[msg.sender] += amount */\n      tag_60\n      jump\t// in\n    tag_64:\n      swap3\n      pop\n      pop\n      dup2\n      swap1\n      sstore\n      pop\n        /* \"StakingContract.sol\":840:846  amount */\n      dup1\n        /* \"StakingContract.sol\":825:836  totalStaked */\n      0x02\n      0x00\n        /* \"StakingContract.sol\":825:846  totalStaked += amount */\n      dup3\n      dup3\n      sload\n      tag_65\n      swap2\n      swap1\n      tag_60\n      jump\t// in\n    tag_65:\n      swap1\n      swap2\n      sstore\n      pop\n      pop\n        /* \"StakingContract.sol\":863:868  token */\n      sload(0x01)\n        /* \"StakingContract.sol\":856:917  IERC20(token).transferFrom(msg.sender, address(this), amount) */\n      mload(0x40)\n      shl(0xe0, 0x23b872dd)\n      dup2\n      mstore\n      sub(shl(0xa0, 0x01), 0x01)\n        /* \"StakingContract.sol\":863:868  token */\n      swap1\n      swap2\n      and\n      swap1\n        /* \"StakingContract.sol\":856:882  IERC20(token).transferFrom */\n      0x23b872dd\n      swap1\n        /* \"StakingContract.sol\":856:917  IERC20(token).transferFrom(msg.sender, address(this), amount) */\n      tag_66\n      swap1\n        /* \"StakingContract.sol\":883:893  msg.sender */\n      caller\n      swap1\n        /* \"StakingContract.sol\":903:907  this */\n      address\n      swap1\n        /* \"StakingContract.sol\":910:916  amount */\n      dup7\n      swap1\n        /* \"StakingContract.sol\":856:917  IERC20(token).transferFrom(msg.sender, address(this), amount) */\n      0x04\n      add\n      tag_67\n      jump\t// in\n    tag_66:\n      0x20\n      mload(0x40)\n      dup1\n      dup4\n      sub\n      dup2\n      0x00\n      dup8\n      dup1\n      extcodesize\n      iszero\n      dup1\n      iszero\n      tag_68\n      jumpi\n      0x00\n      dup1\n      revert\n    tag_68:\n      pop\n      gas\n      call\n      iszero\n      dup1\n      iszero\n      tag_70\n      jumpi\n      returndatasize\n      0x00\n      dup1\n      returndatacopy\n      revert(0x00, returndatasize)\n    tag_70:\n      pop\n      pop\n      pop\n      pop\n      mload(0x40)\n      returndatasize\n      not(0x1f)\n      0x1f\n      dup3\n      add\n      and\n      dup3\n      add\n      dup1\n      0x40\n      mstore\n      pop\n      dup2\n      add\n      swap1\n      tag_71\n      swap2\n      swap1\n      tag_48\n      jump\t// in\n    tag_71:\n      pop\n        /* \"StakingContract.sol\":940:950  msg.sender */\n      caller\n      sub(shl(0xa0, 0x01), 0x01)\n        /* \"StakingContract.sol\":933:959  Staked(msg.sender, amount) */\n      and\n      0x9e71bc8eea02a63969f509818f2dafb9254532904319f9dbda79b67bd34a5f3d\n        /* \"StakingContract.sol\":952:958  amount */\n      dup3\n        /* \"StakingContract.sol\":933:959  Staked(msg.sender, amount) */\n      mload(0x40)\n      tag_49\n      swap2\n      swap1\n      tag_18\n      jump\t// in\n        /* \"StakingContract.sol\":114:134  address public token */\n    tag_30:\n      and(sub(shl(0xa0, 0x01), 0x01), sload(0x01))\n      dup2\n      jump\t// out\n        /* \"#utility.yul\":14:320   */\n    tag_15:\n      0x00\n        /* \"#utility.yul\":126:128   */\n      0x20\n        /* \"#utility.yul\":114:123   */\n      dup3\n        /* \"#utility.yul\":105:112   */\n      dup5\n        /* \"#utility.yul\":101:124   */\n      sub\n        /* \"#utility.yul\":97:129   */\n      slt\n        /* \"#utility.yul\":94:96   */\n      iszero\n      tag_75\n      jumpi\n        /* \"#utility.yul\":147:153   */\n      dup1\n        /* \"#utility.yul\":139:145   */\n      dup2\n        /* \"#utility.yul\":132:154   */\n      revert\n        /* \"#utility.yul\":94:96   */\n    tag_75:\n        /* \"#utility.yul\":178:201   */\n      dup2\n      calldataload\n      sub(shl(0xa0, 0x01), 0x01)\n        /* \"#utility.yul\":230:261   */\n      dup2\n      and\n        /* \"#utility.yul\":220:262   */\n      dup2\n      eq\n        /* \"#utility.yul\":210:212   */\n      tag_76\n      jumpi\n        /* \"#utility.yul\":281:287   */\n      dup2\n        /* \"#utility.yul\":273:279   */\n      dup3\n        /* \"#utility.yul\":266:288   */\n      revert\n        /* \"#utility.yul\":210:212   */\n    tag_76:\n        /* \"#utility.yul\":309:314   */\n      swap4\n        /* \"#utility.yul\":84:320   */\n      swap3\n      pop\n      pop\n      pop\n      jump\t// out\n        /* \"#utility.yul\":325:622   */\n    tag_48:\n      0x00\n        /* \"#utility.yul\":445:447   */\n      0x20\n        /* \"#utility.yul\":433:442   */\n      dup3\n        /* \"#utility.yul\":424:431   */\n      dup5\n        /* \"#utility.yul\":420:443   */\n      sub\n        /* \"#utility.yul\":416:448   */\n      slt\n        /* \"#utility.yul\":413:415   */\n      iszero\n      tag_78\n      jumpi\n        /* \"#utility.yul\":466:472   */\n      dup1\n        /* \"#utility.yul\":458:464   */\n      dup2\n        /* \"#utility.yul\":451:473   */\n      revert\n        /* \"#utility.yul\":413:415   */\n    tag_78:\n        /* \"#utility.yul\":503:512   */\n      dup2\n        /* \"#utility.yul\":497:513   */\n      mload\n        /* \"#utility.yul\":556:561   */\n      dup1\n        /* \"#utility.yul\":549:562   */\n      iszero\n        /* \"#utility.yul\":542:563   */\n      iszero\n        /* \"#utility.yul\":535:540   */\n      dup2\n        /* \"#utility.yul\":532:564   */\n      eq\n        /* \"#utility.yul\":522:524   */\n      tag_76\n      jumpi\n        /* \"#utility.yul\":583:589   */\n      dup2\n        /* \"#utility.yul\":575:581   */\n      dup3\n        /* \"#utility.yul\":568:590   */\n      revert\n        /* \"#utility.yul\":627:817   */\n    tag_11:\n      0x00\n        /* \"#utility.yul\":739:741   */\n      0x20\n        /* \"#utility.yul\":727:736   */\n      dup3\n        /* \"#utility.yul\":718:725   */\n      dup5\n        /* \"#utility.yul\":714:737   */\n      sub\n        /* \"#utility.yul\":710:742   */\n      slt\n        /* \"#utility.yul\":707:709   */\n      iszero\n      tag_81\n      jumpi\n        /* \"#utility.yul\":760:766   */\n      dup1\n        /* \"#utility.yul\":752:758   */\n      dup2\n        /* \"#utility.yul\":745:767   */\n      revert\n        /* \"#utility.yul\":707:709   */\n    tag_81:\n      pop\n        /* \"#utility.yul\":788:811   */\n      calldataload\n      swap2\n        /* \"#utility.yul\":697:817   */\n      swap1\n      pop\n      jump\t// out\n        /* \"#utility.yul\":822:1016   */\n    tag_58:\n      0x00\n        /* \"#utility.yul\":945:947   */\n      0x20\n        /* \"#utility.yul\":933:942   */\n      dup3\n        /* \"#utility.yul\":924:931   */\n      dup5\n        /* \"#utility.yul\":920:943   */\n      sub\n        /* \"#utility.yul\":916:948   */\n      slt\n        /* \"#utility.yul\":913:915   */\n      iszero\n      tag_83\n      jumpi\n        /* \"#utility.yul\":966:972   */\n      dup1\n        /* \"#utility.yul\":958:964   */\n      dup2\n        /* \"#utility.yul\":951:973   */\n      revert\n        /* \"#utility.yul\":913:915   */\n    tag_83:\n      pop\n        /* \"#utility.yul\":994:1010   */\n      mload\n      swap2\n        /* \"#utility.yul\":903:1016   */\n      swap1\n      pop\n      jump\t// out\n        /* \"#utility.yul\":1021:1224   */\n    tag_25:\n      sub(shl(0xa0, 0x01), 0x01)\n        /* \"#utility.yul\":1185:1217   */\n      swap2\n      swap1\n      swap2\n      and\n        /* \"#utility.yul\":1167:1218   */\n      dup2\n      mstore\n        /* \"#utility.yul\":1155:1157   */\n      0x20\n        /* \"#utility.yul\":1140:1158   */\n      add\n      swap1\n        /* \"#utility.yul\":1122:1224   */\n      jump\t// out\n        /* \"#utility.yul\":1229:1604   */\n    tag_67:\n      sub(shl(0xa0, 0x01), 0x01)\n        /* \"#utility.yul\":1487:1502   */\n      swap4\n      dup5\n      and\n        /* \"#utility.yul\":1469:1503   */\n      dup2\n      mstore\n        /* \"#utility.yul\":1539:1554   */\n      swap2\n      swap1\n      swap3\n      and\n        /* \"#utility.yul\":1534:1536   */\n      0x20\n        /* \"#utility.yul\":1519:1537   */\n      dup3\n      add\n        /* \"#utility.yul\":1512:1555   */\n      mstore\n        /* \"#utility.yul\":1586:1588   */\n      0x40\n        /* \"#utility.yul\":1571:1589   */\n      dup2\n      add\n        /* \"#utility.yul\":1564:1598   */\n      swap2\n      swap1\n      swap2\n      mstore\n        /* \"#utility.yul\":1419:1421   */\n      0x60\n        /* \"#utility.yul\":1404:1422   */\n      add\n      swap1\n        /* \"#utility.yul\":1386:1604   */\n      jump\t// out\n        /* \"#utility.yul\":1609:1883   */\n    tag_43:\n      sub(shl(0xa0, 0x01), 0x01)\n        /* \"#utility.yul\":1801:1833   */\n      swap3\n      swap1\n      swap3\n      and\n        /* \"#utility.yul\":1783:1834   */\n      dup3\n      mstore\n        /* \"#utility.yul\":1865:1867   */\n      0x20\n        /* \"#utility.yul\":1850:1868   */\n      dup3\n      add\n        /* \"#utility.yul\":1843:1877   */\n      mstore\n        /* \"#utility.yul\":1771:1773   */\n      0x40\n        /* \"#utility.yul\":1756:1774   */\n      add\n      swap1\n        /* \"#utility.yul\":1738:1883   */\n      jump\t// out\n        /* \"#utility.yul\":1888:2241   */\n    tag_35:\n        /* \"#utility.yul\":2090:2092   */\n      0x20\n        /* \"#utility.yul\":2072:2093   */\n      dup1\n      dup3\n      mstore\n        /* \"#utility.yul\":2129:2131   */\n      0x1d\n        /* \"#utility.yul\":2109:2127   */\n      swap1\n      dup3\n      add\n        /* \"#utility.yul\":2102:2132   */\n      mstore\n        /* \"#utility.yul\":2168:2199   */\n      0x416d6f756e74206d7573742062652067726561746572207468616e2030000000\n        /* \"#utility.yul\":2163:2165   */\n      0x40\n        /* \"#utility.yul\":2148:2166   */\n      dup3\n      add\n        /* \"#utility.yul\":2141:2200   */\n      mstore\n        /* \"#utility.yul\":2232:2234   */\n      0x60\n        /* \"#utility.yul\":2217:2235   */\n      add\n      swap1\n        /* \"#utility.yul\":2062:2241   */\n      jump\t// out\n        /* \"#utility.yul\":2246:2590   */\n    tag_63:\n        /* \"#utility.yul\":2448:2450   */\n      0x20\n        /* \"#utility.yul\":2430:2451   */\n      dup1\n      dup3\n      mstore\n        /* \"#utility.yul\":2487:2489   */\n      0x14\n        /* \"#utility.yul\":2467:2485   */\n      swap1\n      dup3\n      add\n        /* \"#utility.yul\":2460:2490   */\n      mstore\n      shl(0x60, 0x496e73756666696369656e742062616c616e6365)\n        /* \"#utility.yul\":2521:2523   */\n      0x40\n        /* \"#utility.yul\":2506:2524   */\n      dup3\n      add\n        /* \"#utility.yul\":2499:2549   */\n      mstore\n        /* \"#utility.yul\":2581:2583   */\n      0x60\n        /* \"#utility.yul\":2566:2584   */\n      add\n      swap1\n        /* \"#utility.yul\":2420:2590   */\n      jump\t// out\n        /* \"#utility.yul\":2595:2946   */\n    tag_38:\n        /* \"#utility.yul\":2797:2799   */\n      0x20\n        /* \"#utility.yul\":2779:2800   */\n      dup1\n      dup3\n      mstore\n        /* \"#utility.yul\":2836:2838   */\n      0x1b\n        /* \"#utility.yul\":2816:2834   */\n      swap1\n      dup3\n      add\n        /* \"#utility.yul\":2809:2839   */\n      mstore\n        /* \"#utility.yul\":2875:2904   */\n      0x496e73756666696369656e74207374616b65642062616c616e63650000000000\n        /* \"#utility.yul\":2870:2872   */\n      0x40\n        /* \"#utility.yul\":2855:2873   */\n      dup3\n      add\n        /* \"#utility.yul\":2848:2905   */\n      mstore\n        /* \"#utility.yul\":2937:2939   */\n      0x60\n        /* \"#utility.yul\":2922:2940   */\n      add\n      swap1\n        /* \"#utility.yul\":2769:2946   */\n      jump\t// out\n        /* \"#utility.yul\":2951:3128   */\n    tag_18:\n        /* \"#utility.yul\":3097:3122   */\n      swap1\n      dup2\n      mstore\n        /* \"#utility.yul\":3085:3087   */\n      0x20\n        /* \"#utility.yul\":3070:3088   */\n      add\n      swap1\n        /* \"#utility.yul\":3052:3128   */\n      jump\t// out\n        /* \"#utility.yul\":3133:3261   */\n    tag_60:\n      0x00\n        /* \"#utility.yul\":3204:3205   */\n      dup3\n        /* \"#utility.yul\":3200:3206   */\n      not\n        /* \"#utility.yul\":3197:3198   */\n      dup3\n        /* \"#utility.yul\":3194:3207   */\n      gt\n        /* \"#utility.yul\":3191:3193   */\n      iszero\n      tag_93\n      jumpi\n        /* \"#utility.yul\":3210:3228   */\n      tag_93\n      tag_94\n      jump\t// in\n    tag_93:\n      pop\n        /* \"#utility.yul\":3246:3255   */\n      add\n      swap1\n        /* \"#utility.yul\":3181:3261   */\n      jump\t// out\n        /* \"#utility.yul\":3266:3391   */\n    tag_40:\n      0x00\n        /* \"#utility.yul\":3334:3335   */\n      dup3\n        /* \"#utility.yul\":3331:3332   */\n      dup3\n        /* \"#utility.yul\":3328:3336   */\n      lt\n        /* \"#utility.yul\":3325:3327   */\n      iszero\n      tag_97\n      jumpi\n        /* \"#utility.yul\":3339:3357   */\n      tag_97\n      tag_94\n      jump\t// in\n    tag_97:\n      pop\n        /* \"#utility.yul\":3376:3385   */\n      sub\n      swap1\n        /* \"#utility.yul\":3315:3391   */\n      jump\t// out\n        /* \"#utility.yul\":3396:3523   */\n    tag_94:\n        /* \"#utility.yul\":3457:3467   */\n      0x4e487b71\n        /* \"#utility.yul\":3452:3455   */\n      0xe0\n        /* \"#utility.yul\":3448:3468   */\n      shl\n        /* \"#utility.yul\":3445:3446   */\n      0x00\n        /* \"#utility.yul\":3438:3469   */\n      mstore\n        /* \"#utility.yul\":3488:3492   */\n      0x11\n        /* \"#utility.yul\":3485:3486   */\n      0x04\n        /* \"#utility.yul\":3478:3493   */\n      mstore\n        /* \"#utility.yul\":3512:3516   */\n      0x24\n        /* \"#utility.yul\":3509:3510   */\n      0x00\n        /* \"#utility.yul\":3502:3517   */\n      revert\n\n    auxdata: 0xa2646970667358221220dac3a81914f2a97e5c2c118e0646299ac1edc93d880a7859b338b097f39ad17964736f6c63430008000033\n}\n",
				"bytecode": {
					"linkReferences": {},
					"object": "608060405234801561001057600080fd5b506040516106d53803806106d583398101604081905261002f91610062565b60008054336001600160a01b031991821617909155600180549091166001600160a01b0392909216919091179055610090565b600060208284031215610073578081fd5b81516001600160a01b0381168114610089578182fd5b9392505050565b6106368061009f6000396000f3fe608060405234801561001057600080fd5b50600436106100625760003560e01c80632e1a7d4d14610067578063602172671461007c578063817b1cd2146100a55780638da5cb5b146100ad578063a694fc3a146100c2578063fc0c546a146100d5575b600080fd5b61007a610075366004610495565b6100dd565b005b61008f61008a366004610447565b61023b565b60405161009c91906105b2565b60405180910390f35b61008f61024d565b6100b5610253565b60405161009c91906104c5565b61007a6100d0366004610495565b610262565b6100b5610438565b600081116101065760405162461bcd60e51b81526004016100fd90610516565b60405180910390fd5b336000908152600360205260409020548111156101355760405162461bcd60e51b81526004016100fd9061057b565b33600090815260036020526040812080548392906101549084906105d3565b92505081905550806002600082825461016d91906105d3565b909155505060015460405163a9059cbb60e01b81526001600160a01b039091169063a9059cbb906101a490339085906004016104fd565b602060405180830381600087803b1580156101be57600080fd5b505af11580156101d2573d6000803e3d6000fd5b505050506040513d601f19601f820116820180604052508101906101f69190610475565b50336001600160a01b03167f7084f5476618d8e60b11ef0d7d3f06914655adb8793e28ff7f018d4c76d505d58260405161023091906105b2565b60405180910390a250565b60036020526000908152604090205481565b60025481565b6000546001600160a01b031681565b600081116102825760405162461bcd60e51b81526004016100fd90610516565b6001546040516370a0823160e01b81526001600160a01b03909116906370a08231906102b29033906004016104c5565b60206040518083038186803b1580156102ca57600080fd5b505afa1580156102de573d6000803e3d6000fd5b505050506040513d601f19601f8201168201806040525081019061030291906104ad565b3360009081526003602052604090205461031d9083906105bb565b111561033b5760405162461bcd60e51b81526004016100fd9061054d565b336000908152600360205260408120805483929061035a9084906105bb565b92505081905550806002600082825461037391906105bb565b90915550506001546040516323b872dd60e01b81526001600160a01b03909116906323b872dd906103ac903390309086906004016104d9565b602060405180830381600087803b1580156103c657600080fd5b505af11580156103da573d6000803e3d6000fd5b505050506040513d601f19601f820116820180604052508101906103fe9190610475565b50336001600160a01b03167f9e71bc8eea02a63969f509818f2dafb9254532904319f9dbda79b67bd34a5f3d8260405161023091906105b2565b6001546001600160a01b031681565b600060208284031215610458578081fd5b81356001600160a01b038116811461046e578182fd5b9392505050565b600060208284031215610486578081fd5b8151801515811461046e578182fd5b6000602082840312156104a6578081fd5b5035919050565b6000602082840312156104be578081fd5b5051919050565b6001600160a01b0391909116815260200190565b6001600160a01b039384168152919092166020820152604081019190915260600190565b6001600160a01b03929092168252602082015260400190565b6020808252601d908201527f416d6f756e74206d7573742062652067726561746572207468616e2030000000604082015260600190565b602080825260149082015273496e73756666696369656e742062616c616e636560601b604082015260600190565b6020808252601b908201527f496e73756666696369656e74207374616b65642062616c616e63650000000000604082015260600190565b90815260200190565b600082198211156105ce576105ce6105ea565b500190565b6000828210156105e5576105e56105ea565b500390565b634e487b7160e01b600052601160045260246000fdfea2646970667358221220dac3a81914f2a97e5c2c118e0646299ac1edc93d880a7859b338b097f39ad17964736f6c63430008000033",
					"opcodes": "PUSH1 0x80 PUSH1 0x40 MSTORE CALLVALUE DUP1 ISZERO PUSH2 0x10 JUMPI PUSH1 0x0 DUP1 REVERT JUMPDEST POP PUSH1 0x40 MLOAD PUSH2 0x6D5 CODESIZE SUB DUP1 PUSH2 0x6D5 DUP4 CODECOPY DUP2 ADD PUSH1 0x40 DUP2 SWAP1 MSTORE PUSH2 0x2F SWAP2 PUSH2 0x62 JUMP JUMPDEST PUSH1 0x0 DUP1 SLOAD CALLER PUSH1 0x1 PUSH1 0x1 PUSH1 0xA0 SHL SUB NOT SWAP2 DUP3 AND OR SWAP1 SWAP2 SSTORE PUSH1 0x1 DUP1 SLOAD SWAP1 SWAP2 AND PUSH1 0x1 PUSH1 0x1 PUSH1 0xA0 SHL SUB SWAP3 SWAP1 SWAP3 AND SWAP2 SWAP1 SWAP2 OR SWAP1 SSTORE PUSH2 0x90 JUMP JUMPDEST PUSH1 0x0 PUSH1 0x20 DUP3 DUP5 SUB SLT ISZERO PUSH2 0x73 JUMPI DUP1 DUP2 REVERT JUMPDEST DUP2 MLOAD PUSH1 0x1 PUSH1 0x1 PUSH1 0xA0 SHL SUB DUP2 AND DUP2 EQ PUSH2 0x89 JUMPI DUP2 DUP3 REVERT JUMPDEST SWAP4 SWAP3 POP POP POP JUMP JUMPDEST PUSH2 0x636 DUP1 PUSH2 0x9F PUSH1 0x0 CODECOPY PUSH1 0x0 RETURN INVALID PUSH1 0x80 PUSH1 0x40 MSTORE CALLVALUE DUP1 ISZERO PUSH2 0x10 JUMPI PUSH1 0x0 DUP1 REVERT JUMPDEST POP PUSH1 0x4 CALLDATASIZE LT PUSH2 0x62 JUMPI PUSH1 0x0 CALLDATALOAD PUSH1 0xE0 SHR DUP1 PUSH4 0x2E1A7D4D EQ PUSH2 0x67 JUMPI DUP1 PUSH4 0x60217267 EQ PUSH2 0x7C JUMPI DUP1 PUSH4 0x817B1CD2 EQ PUSH2 0xA5 JUMPI DUP1 PUSH4 0x8DA5CB5B EQ PUSH2 0xAD JUMPI DUP1 PUSH4 0xA694FC3A EQ PUSH2 0xC2 JUMPI DUP1 PUSH4 0xFC0C546A EQ PUSH2 0xD5 JUMPI JUMPDEST PUSH1 0x0 DUP1 REVERT JUMPDEST PUSH2 0x7A PUSH2 0x75 CALLDATASIZE PUSH1 0x4 PUSH2 0x495 JUMP JUMPDEST PUSH2 0xDD JUMP JUMPDEST STOP JUMPDEST PUSH2 0x8F PUSH2 0x8A CALLDATASIZE PUSH1 0x4 PUSH2 0x447 JUMP JUMPDEST PUSH2 0x23B JUMP JUMPDEST PUSH1 0x40 MLOAD PUSH2 0x9C SWAP2 SWAP1 PUSH2 0x5B2 JUMP JUMPDEST PUSH1 0x40 MLOAD DUP1 SWAP2 SUB SWAP1 RETURN JUMPDEST PUSH2 0x8F PUSH2 0x24D JUMP JUMPDEST PUSH2 0xB5 PUSH2 0x253 JUMP JUMPDEST PUSH1 0x40 MLOAD PUSH2 0x9C SWAP2 SWAP1 PUSH2 0x4C5 JUMP JUMPDEST PUSH2 0x7A PUSH2 0xD0 CALLDATASIZE PUSH1 0x4 PUSH2 0x495 JUMP JUMPDEST PUSH2 0x262 JUMP JUMPDEST PUSH2 0xB5 PUSH2 0x438 JUMP JUMPDEST PUSH1 0x0 DUP2 GT PUSH2 0x106 JUMPI PUSH1 0x40 MLOAD PUSH3 0x461BCD PUSH1 0xE5 SHL DUP2 MSTORE PUSH1 0x4 ADD PUSH2 0xFD SWAP1 PUSH2 0x516 JUMP JUMPDEST PUSH1 0x40 MLOAD DUP1 SWAP2 SUB SWAP1 REVERT JUMPDEST CALLER PUSH1 0x0 SWAP1 DUP2 MSTORE PUSH1 0x3 PUSH1 0x20 MSTORE PUSH1 0x40 SWAP1 KECCAK256 SLOAD DUP2 GT ISZERO PUSH2 0x135 JUMPI PUSH1 0x40 MLOAD PUSH3 0x461BCD PUSH1 0xE5 SHL DUP2 MSTORE PUSH1 0x4 ADD PUSH2 0xFD SWAP1 PUSH2 0x57B JUMP JUMPDEST CALLER PUSH1 0x0 SWAP1 DUP2 MSTORE PUSH1 0x3 PUSH1 0x20 MSTORE PUSH1 0x40 DUP2 KECCAK256 DUP1 SLOAD DUP4 SWAP3 SWAP1 PUSH2 0x154 SWAP1 DUP5 SWAP1 PUSH2 0x5D3 JUMP JUMPDEST SWAP3 POP POP DUP2 SWAP1 SSTORE POP DUP1 PUSH1 0x2 PUSH1 0x0 DUP3 DUP3 SLOAD PUSH2 0x16D SWAP2 SWAP1 PUSH2 0x5D3 JUMP JUMPDEST SWAP1 SWAP2 SSTORE POP POP PUSH1 0x1 SLOAD PUSH1 0x40 MLOAD PUSH4 0xA9059CBB PUSH1 0xE0 SHL DUP2 MSTORE PUSH1 0x1 PUSH1 0x1 PUSH1 0xA0 SHL SUB SWAP1 SWAP2 AND SWAP1 PUSH4 0xA9059CBB SWAP1 PUSH2 0x1A4 SWAP1 CALLER SWAP1 DUP6 SWAP1 PUSH1 0x4 ADD PUSH2 0x4FD JUMP JUMPDEST PUSH1 0x20 PUSH1 0x40 MLOAD DUP1 DUP4 SUB DUP2 PUSH1 0x0 DUP8 DUP1 EXTCODESIZE ISZERO DUP1 ISZERO PUSH2 0x1BE JUMPI PUSH1 0x0 DUP1 REVERT JUMPDEST POP GAS CALL ISZERO DUP1 ISZERO PUSH2 0x1D2 JUMPI RETURNDATASIZE PUSH1 0x0 DUP1 RETURNDATACOPY RETURNDATASIZE PUSH1 0x0 REVERT JUMPDEST POP POP POP POP PUSH1 0x40 MLOAD RETURNDATASIZE PUSH1 0x1F NOT PUSH1 0x1F DUP3 ADD AND DUP3 ADD DUP1 PUSH1 0x40 MSTORE POP DUP2 ADD SWAP1 PUSH2 0x1F6 SWAP2 SWAP1 PUSH2 0x475 JUMP JUMPDEST POP CALLER PUSH1 0x1 PUSH1 0x1 PUSH1 0xA0 SHL SUB AND PUSH32 0x7084F5476618D8E60B11EF0D7D3F06914655ADB8793E28FF7F018D4C76D505D5 DUP3 PUSH1 0x40 MLOAD PUSH2 0x230 SWAP2 SWAP1 PUSH2 0x5B2 JUMP JUMPDEST PUSH1 0x40 MLOAD DUP1 SWAP2 SUB SWAP1 LOG2 POP JUMP JUMPDEST PUSH1 0x3 PUSH1 0x20 MSTORE PUSH1 0x0 SWAP1 DUP2 MSTORE PUSH1 0x40 SWAP1 KECCAK256 SLOAD DUP2 JUMP JUMPDEST PUSH1 0x2 SLOAD DUP2 JUMP JUMPDEST PUSH1 0x0 SLOAD PUSH1 0x1 PUSH1 0x1 PUSH1 0xA0 SHL SUB AND DUP2 JUMP JUMPDEST PUSH1 0x0 DUP2 GT PUSH2 0x282 JUMPI PUSH1 0x40 MLOAD PUSH3 0x461BCD PUSH1 0xE5 SHL DUP2 MSTORE PUSH1 0x4 ADD PUSH2 0xFD SWAP1 PUSH2 0x516 JUMP JUMPDEST PUSH1 0x1 SLOAD PUSH1 0x40 MLOAD PUSH4 0x70A08231 PUSH1 0xE0 SHL DUP2 MSTORE PUSH1 0x1 PUSH1 0x1 PUSH1 0xA0 SHL SUB SWAP1 SWAP2 AND SWAP1 PUSH4 0x70A08231 SWAP1 PUSH2 0x2B2 SWAP1 CALLER SWAP1 PUSH1 0x4 ADD PUSH2 0x4C5 JUMP JUMPDEST PUSH1 0x20 PUSH1 0x40 MLOAD DUP1 DUP4 SUB DUP2 DUP7 DUP1 EXTCODESIZE ISZERO DUP1 ISZERO PUSH2 0x2CA JUMPI PUSH1 0x0 DUP1 REVERT JUMPDEST POP GAS STATICCALL ISZERO DUP1 ISZERO PUSH2 0x2DE JUMPI RETURNDATASIZE PUSH1 0x0 DUP1 RETURNDATACOPY RETURNDATASIZE PUSH1 0x0 REVERT JUMPDEST POP POP POP POP PUSH1 0x40 MLOAD RETURNDATASIZE PUSH1 0x1F NOT PUSH1 0x1F DUP3 ADD AND DUP3 ADD DUP1 PUSH1 0x40 MSTORE POP DUP2 ADD SWAP1 PUSH2 0x302 SWAP2 SWAP1 PUSH2 0x4AD JUMP JUMPDEST CALLER PUSH1 0x0 SWAP1 DUP2 MSTORE PUSH1 0x3 PUSH1 0x20 MSTORE PUSH1 0x40 SWAP1 KECCAK256 SLOAD PUSH2 0x31D SWAP1 DUP4 SWAP1 PUSH2 0x5BB JUMP JUMPDEST GT ISZERO PUSH2 0x33B JUMPI PUSH1 0x40 MLOAD PUSH3 0x461BCD PUSH1 0xE5 SHL DUP2 MSTORE PUSH1 0x4 ADD PUSH2 0xFD SWAP1 PUSH2 0x54D JUMP JUMPDEST CALLER PUSH1 0x0 SWAP1 DUP2 MSTORE PUSH1 0x3 PUSH1 0x20 MSTORE PUSH1 0x40 DUP2 KECCAK256 DUP1 SLOAD DUP4 SWAP3 SWAP1 PUSH2 0x35A SWAP1 DUP5 SWAP1 PUSH2 0x5BB JUMP JUMPDEST SWAP3 POP POP DUP2 SWAP1 SSTORE POP DUP1 PUSH1 0x2 PUSH1 0x0 DUP3 DUP3 SLOAD PUSH2 0x373 SWAP2 SWAP1 PUSH2 0x5BB JUMP JUMPDEST SWAP1 SWAP2 SSTORE POP POP PUSH1 0x1 SLOAD PUSH1 0x40 MLOAD PUSH4 0x23B872DD PUSH1 0xE0 SHL DUP2 MSTORE PUSH1 0x1 PUSH1 0x1 PUSH1 0xA0 SHL SUB SWAP1 SWAP2 AND SWAP1 PUSH4 0x23B872DD SWAP1 PUSH2 0x3AC SWAP1 CALLER SWAP1 ADDRESS SWAP1 DUP7 SWAP1 PUSH1 0x4 ADD PUSH2 0x4D9 JUMP JUMPDEST PUSH1 0x20 PUSH1 0x40 MLOAD DUP1 DUP4 SUB DUP2 PUSH1 0x0 DUP8 DUP1 EXTCODESIZE ISZERO DUP1 ISZERO PUSH2 0x3C6 JUMPI PUSH1 0x0 DUP1 REVERT JUMPDEST POP GAS CALL ISZERO DUP1 ISZERO PUSH2 0x3DA JUMPI RETURNDATASIZE PUSH1 0x0 DUP1 RETURNDATACOPY RETURNDATASIZE PUSH1 0x0 REVERT JUMPDEST POP POP POP POP PUSH1 0x40 MLOAD RETURNDATASIZE PUSH1 0x1F NOT PUSH1 0x1F DUP3 ADD AND DUP3 ADD DUP1 PUSH1 0x40 MSTORE POP DUP2 ADD SWAP1 PUSH2 0x3FE SWAP2 SWAP1 PUSH2 0x475 JUMP JUMPDEST POP CALLER PUSH1 0x1 PUSH1 0x1 PUSH1 0xA0 SHL SUB AND PUSH32 0x9E71BC8EEA02A63969F509818F2DAFB9254532904319F9DBDA79B67BD34A5F3D DUP3 PUSH1 0x40 MLOAD PUSH2 0x230 SWAP2 SWAP1 PUSH2 0x5B2 JUMP JUMPDEST PUSH1 0x1 SLOAD PUSH1 0x1 PUSH1 0x1 PUSH1 0xA0 SHL SUB AND DUP2 JUMP JUMPDEST PUSH1 0x0 PUSH1 0x20 DUP3 DUP5 SUB SLT ISZERO PUSH2 0x458 JUMPI DUP1 DUP2 REVERT JUMPDEST DUP2 CALLDATALOAD PUSH1 0x1 PUSH1 0x1 PUSH1 0xA0 SHL SUB DUP2 AND DUP2 EQ PUSH2 0x46E JUMPI DUP2 DUP3 REVERT JUMPDEST SWAP4 SWAP3 POP POP POP JUMP JUMPDEST PUSH1 0x0 PUSH1 0x20 DUP3 DUP5 SUB SLT ISZERO PUSH2 0x486 JUMPI DUP1 DUP2 REVERT JUMPDEST DUP2 MLOAD DUP1 ISZERO ISZERO DUP2 EQ PUSH2 0x46E JUMPI DUP2 DUP3 REVERT JUMPDEST PUSH1 0x0 PUSH1 0x20 DUP3 DUP5 SUB SLT ISZERO PUSH2 0x4A6 JUMPI DUP1 DUP2 REVERT JUMPDEST POP CALLDATALOAD SWAP2 SWAP1 POP JUMP JUMPDEST PUSH1 0x0 PUSH1 0x20 DUP3 DUP5 SUB SLT ISZERO PUSH2 0x4BE JUMPI DUP1 DUP2 REVERT JUMPDEST POP MLOAD SWAP2 SWAP1 POP JUMP JUMPDEST PUSH1 0x1 PUSH1 0x1 PUSH1 0xA0 SHL SUB SWAP2 SWAP1 SWAP2 AND DUP2 MSTORE PUSH1 0x20 ADD SWAP1 JUMP JUMPDEST PUSH1 0x1 PUSH1 0x1 PUSH1 0xA0 SHL SUB SWAP4 DUP5 AND DUP2 MSTORE SWAP2 SWAP1 SWAP3 AND PUSH1 0x20 DUP3 ADD MSTORE PUSH1 0x40 DUP2 ADD SWAP2 SWAP1 SWAP2 MSTORE PUSH1 0x60 ADD SWAP1 JUMP JUMPDEST PUSH1 0x1 PUSH1 0x1 PUSH1 0xA0 SHL SUB SWAP3 SWAP1 SWAP3 AND DUP3 MSTORE PUSH1 0x20 DUP3 ADD MSTORE PUSH1 0x40 ADD SWAP1 JUMP JUMPDEST PUSH1 0x20 DUP1 DUP3 MSTORE PUSH1 0x1D SWAP1 DUP3 ADD MSTORE PUSH32 0x416D6F756E74206D7573742062652067726561746572207468616E2030000000 PUSH1 0x40 DUP3 ADD MSTORE PUSH1 0x60 ADD SWAP1 JUMP JUMPDEST PUSH1 0x20 DUP1 DUP3 MSTORE PUSH1 0x14 SWAP1 DUP3 ADD MSTORE PUSH20 0x496E73756666696369656E742062616C616E6365 PUSH1 0x60 SHL PUSH1 0x40 DUP3 ADD MSTORE PUSH1 0x60 ADD SWAP1 JUMP JUMPDEST PUSH1 0x20 DUP1 DUP3 MSTORE PUSH1 0x1B SWAP1 DUP3 ADD MSTORE PUSH32 0x496E73756666696369656E74207374616B65642062616C616E63650000000000 PUSH1 0x40 DUP3 ADD MSTORE PUSH1 0x60 ADD SWAP1 JUMP JUMPDEST SWAP1 DUP2 MSTORE PUSH1 0x20 ADD SWAP1 JUMP JUMPDEST PUSH1 0x0 DUP3 NOT DUP3 GT ISZERO PUSH2 0x5CE JUMPI PUSH2 0x5CE PUSH2 0x5EA JUMP JUMPDEST POP ADD SWAP1 JUMP JUMPDEST PUSH1 0x0 DUP3 DUP3 LT ISZERO PUSH2 0x5E5 JUMPI PUSH2 0x5E5 PUSH2 0x5EA JUMP JUMPDEST POP SUB SWAP1 JUMP JUMPDEST PUSH4 0x4E487B71 PUSH1 0xE0 SHL PUSH1 0x0 MSTORE PUSH1 0x11 PUSH1 0x4 MSTORE PUSH1 0x24 PUSH1 0x0 REVERT INVALID LOG2 PUSH5 0x6970667358 0x22 SLT KECCAK256 0xDA 0xC3 0xA8 NOT EQ CALLCODE 0xA9 PUSH31 0x5C2C118E0646299AC1EDC93D880A7859B338B097F39AD17964736F6C634300 ADDMOD STOP STOP CALLER "
				},
				"gasEstimates": {
					"creation": {
						"codeDepositCost": "318000",
						"executionCost": "infinite",
						"totalCost": "infinite"
					},
					"external": {
						"owner()": "1114",
						"stake(uint256)": "infinite",
						"stakedBalance(address)": "1217",
						"token()": "1158",
						"totalStaked()": "1050",
						"withdraw(uint256)": "infinite"
					}
				},
				"methodIdentifiers": {
					"owner()": "8da5cb5b",
					"stake(uint256)": "a694fc3a",
					"stakedBalance(address)": "60217267",
					"token()": "fc0c546a",
					"totalStaked()": "817b1cd2",
					"withdraw(uint256)": "2e1a7d4d"
				}
			},
			"storageLayout": {
				"storage": [
					{
						"astId": 3,
						"contract": "StakingContract.sol:StakingContract",
						"label": "owner",
						"offset": 0,
						"slot": "0",
						"type": "t_address"
					},
					{
						"astId": 5,
						"contract": "StakingContract.sol:StakingContract",
						"label": "token",
						"offset": 0,
						"slot": "1",
						"type": "t_address"
					},
					{
						"astId": 7,
						"contract": "StakingContract.sol:StakingContract",
						"label": "totalStaked",
						"offset": 0,
						"slot": "2",
						"type": "t_uint256"
					},
					{
						"astId": 11,
						"contract": "StakingContract.sol:StakingContract",
						"label": "stakedBalance",
						"offset": 0,
						"slot": "3",
						"type": "t_mapping(t_address,t_uint256)"
					}
				],
				"types": {
					"t_address": {
						"encoding": "inplace",
						"label": "address",
						"numberOfBytes": "20"
					},
					"t_mapping(t_address,t_uint256)": {
						"encoding": "mapping",
						"key": "t_address",
						"label": "mapping(address => uint256)",
						"numberOfBytes": "32",
						"value": "t_uint256"
					},
					"t_uint256": {
						"encoding": "inplace",
						"label": "uint256",
						"numberOfBytes": "32"
					}
				}
			},
			"userdoc": {
				"kind": "user",
				"methods": {},
				"version": 1
			}
		}
	}
}